{
  "contractName": "Piper",
  "abi": [
    {
      "inputs": [],
      "payable": false,
      "stateMutability": "nonpayable",
      "type": "constructor"
    },
    {
      "anonymous": false,
      "inputs": [
        {
          "indexed": false,
          "name": "hash",
          "type": "string"
        },
        {
          "components": [
            {
              "components": [
                {
                  "name": "hash",
                  "type": "string"
                },
                {
                  "name": "developer",
                  "type": "string"
                },
                {
                  "name": "developerETH",
                  "type": "string"
                },
                {
                  "name": "name",
                  "type": "string"
                },
                {
                  "name": "overview",
                  "type": "string"
                },
                {
                  "name": "category",
                  "type": "string"
                },
                {
                  "name": "version",
                  "type": "string"
                },
                {
                  "name": "size",
                  "type": "uint256"
                },
                {
                  "name": "iconURL",
                  "type": "string"
                },
                {
                  "name": "crx",
                  "type": "string"
                },
                {
                  "name": "rating",
                  "type": "uint8"
                },
                {
                  "name": "reviews",
                  "type": "uint256"
                },
                {
                  "name": "downloads",
                  "type": "uint256"
                },
                {
                  "name": "updated",
                  "type": "uint256"
                }
              ],
              "name": "extension",
              "type": "tuple"
            },
            {
              "name": "owner",
              "type": "address"
            }
          ],
          "indexed": false,
          "name": "extension",
          "type": "tuple"
        }
      ],
      "name": "CreateNewExtensionEvent",
      "type": "event"
    },
    {
      "anonymous": false,
      "inputs": [
        {
          "indexed": false,
          "name": "hash",
          "type": "string"
        },
        {
          "components": [
            {
              "components": [
                {
                  "name": "hash",
                  "type": "string"
                },
                {
                  "name": "developer",
                  "type": "string"
                },
                {
                  "name": "developerETH",
                  "type": "string"
                },
                {
                  "name": "name",
                  "type": "string"
                },
                {
                  "name": "overview",
                  "type": "string"
                },
                {
                  "name": "category",
                  "type": "string"
                },
                {
                  "name": "version",
                  "type": "string"
                },
                {
                  "name": "size",
                  "type": "uint256"
                },
                {
                  "name": "iconURL",
                  "type": "string"
                },
                {
                  "name": "crx",
                  "type": "string"
                },
                {
                  "name": "rating",
                  "type": "uint8"
                },
                {
                  "name": "reviews",
                  "type": "uint256"
                },
                {
                  "name": "downloads",
                  "type": "uint256"
                },
                {
                  "name": "updated",
                  "type": "uint256"
                }
              ],
              "name": "extension",
              "type": "tuple"
            },
            {
              "name": "owner",
              "type": "address"
            }
          ],
          "indexed": false,
          "name": "extension",
          "type": "tuple"
        }
      ],
      "name": "UpdateExtensionByHashEvent",
      "type": "event"
    },
    {
      "anonymous": false,
      "inputs": [
        {
          "indexed": false,
          "name": "hash",
          "type": "string"
        },
        {
          "components": [
            {
              "name": "version",
              "type": "string"
            },
            {
              "name": "crx",
              "type": "string"
            },
            {
              "name": "created",
              "type": "uint256"
            }
          ],
          "indexed": false,
          "name": "version",
          "type": "tuple"
        }
      ],
      "name": "CreateNewExtensionVersionEvent",
      "type": "event"
    },
    {
      "constant": true,
      "inputs": [
        {
          "name": "_hash",
          "type": "string"
        }
      ],
      "name": "isExtension",
      "outputs": [
        {
          "name": "",
          "type": "bool"
        }
      ],
      "payable": false,
      "stateMutability": "view",
      "type": "function"
    },
    {
      "constant": false,
      "inputs": [
        {
          "name": "_hash",
          "type": "string"
        },
        {
          "components": [
            {
              "name": "hash",
              "type": "string"
            },
            {
              "name": "developer",
              "type": "string"
            },
            {
              "name": "developerETH",
              "type": "string"
            },
            {
              "name": "name",
              "type": "string"
            },
            {
              "name": "overview",
              "type": "string"
            },
            {
              "name": "category",
              "type": "string"
            },
            {
              "name": "version",
              "type": "string"
            },
            {
              "name": "size",
              "type": "uint256"
            },
            {
              "name": "iconURL",
              "type": "string"
            },
            {
              "name": "crx",
              "type": "string"
            },
            {
              "name": "rating",
              "type": "uint8"
            },
            {
              "name": "reviews",
              "type": "uint256"
            },
            {
              "name": "downloads",
              "type": "uint256"
            },
            {
              "name": "updated",
              "type": "uint256"
            }
          ],
          "name": "_extension",
          "type": "tuple"
        }
      ],
      "name": "createNewExtension",
      "outputs": [
        {
          "name": "",
          "type": "bool"
        }
      ],
      "payable": false,
      "stateMutability": "nonpayable",
      "type": "function"
    }
  ],
  "bytecode": "0x60806040523480156200001157600080fd5b50336000806101000a81548173ffffffffffffffffffffffffffffffffffffffff021916908373ffffffffffffffffffffffffffffffffffffffff1602179055506040518060400160405280600581526020017f5069706572000000000000000000000000000000000000000000000000000000815250600190805190602001906200009f929190620000a6565b5062000155565b828054600181600116156101000203166002900490600052602060002090601f016020900481019282601f10620000e957805160ff19168380011785556200011a565b828001600101855582156200011a579182015b8281111562000119578251825591602001919060010190620000fc565b5b5090506200012991906200012d565b5090565b6200015291905b808211156200014e57600081600090555060010162000134565b5090565b90565b61164380620001656000396000f3fe608060405234801561001057600080fd5b50600436106100365760003560e01c80634dd87a201461003b578063fa16b9b61461006b575b600080fd5b61005560048036036100509190810190610e5b565b61009b565b6040516100629190611321565b60405180910390f35b61008560048036036100809190810190610e1a565b6109a4565b6040516100929190611321565b60405180910390f35b60006100a6836109a4565b61031957816002846040516100bb919061130a565b908152602001604051809103902060000160008201518160000190805190602001906100e89291906109e0565b5060208201518160010190805190602001906101059291906109e0565b5060408201518160020190805190602001906101229291906109e0565b50606082015181600301908051906020019061013f9291906109e0565b50608082015181600401908051906020019061015c9291906109e0565b5060a08201518160050190805190602001906101799291906109e0565b5060c08201518160060190805190602001906101969291906109e0565b5060e082015181600701556101008201518160080190805190602001906101be9291906109e0565b506101208201518160090190805190602001906101dc9291906109e0565b5061014082015181600a0160006101000a81548160ff021916908360ff16021790555061016082015181600b015561018082015181600c01556101a082015181600d015590505033600284604051610234919061130a565b9081526020016040518091039020600e0160006101000a81548173ffffffffffffffffffffffffffffffffffffffff021916908373ffffffffffffffffffffffffffffffffffffffff1602179055506001600384604051610295919061130a565b908152602001604051809103902060006101000a81548160ff0219169083151502179055507f7c7e3e67ec55fd6b066e9c661ff0ad8efe1aab24a6ec70af1dcf0ded76221ffb836002856040516102ec919061130a565b9081526020016040518091039020604051610308929190611373565b60405180910390a16001905061099e565b600283604051610329919061130a565b9081526020016040518091039020600e0160009054906101000a900473ffffffffffffffffffffffffffffffffffffffff1673ffffffffffffffffffffffffffffffffffffffff163373ffffffffffffffffffffffffffffffffffffffff161461039257600080fd5b6002836040516103a2919061130a565b90815260200160405180910390206000016009016040516103c391906112f3565b604051809103902082610120015180519060200120146106fe576002836040516103ed919061130a565b908152602001604051809103902060000160060160405161040e91906112f3565b60405180910390208260c0015180519060200120141561042d57600080fd5b610435610a60565b60405180606001604052808460c0015181526020018461012001518152602001846101a001518152509050600484604051610470919061130a565b9081526020016040518091039020819080600181540180825580915050906001820390600052602060002090600302016000909192909190915060008201518160000190805190602001906104c69291906109e0565b5060208201518160010190805190602001906104e39291906109e0565b50604082015181600201555050508260200151600285604051610506919061130a565b9081526020016040518091039020600001600101908051906020019061052d929190610a81565b508260400151600285604051610543919061130a565b9081526020016040518091039020600001600201908051906020019061056a929190610a81565b508260600151600285604051610580919061130a565b908152602001604051809103902060000160030190805190602001906105a7929190610a81565b5082608001516002856040516105bd919061130a565b908152602001604051809103902060000160040190805190602001906105e4929190610a81565b508260a001516002856040516105fa919061130a565b90815260200160405180910390206000016005019080519060200190610621929190610a81565b508260e00151600285604051610637919061130a565b908152602001604051809103902060000160070181905550826101000151600285604051610665919061130a565b9081526020016040518091039020600001600801908051906020019061068c929190610a81565b50826101a001516002856040516106a3919061130a565b9081526020016040518091039020600001600d01819055507f958c181044b44e46faf4ac7799ca9f95ff2b8cf0fa8849facd7986bf69e9eca684826040516106ec92919061133c565b60405180910390a1600191505061099e565b8160200151600284604051610713919061130a565b9081526020016040518091039020600001600101908051906020019061073a929190610a81565b508160400151600284604051610750919061130a565b90815260200160405180910390206000016002019080519060200190610777929190610a81565b50816060015160028460405161078d919061130a565b908152602001604051809103902060000160030190805190602001906107b4929190610a81565b5081608001516002846040516107ca919061130a565b908152602001604051809103902060000160040190805190602001906107f1929190610a81565b508160a00151600284604051610807919061130a565b9081526020016040518091039020600001600501908051906020019061082e929190610a81565b508160e00151600284604051610844919061130a565b908152602001604051809103902060000160070181905550816101000151600284604051610872919061130a565b90815260200160405180910390206000016008019080519060200190610899929190610a81565b50816101a001516002846040516108b0919061130a565b9081526020016040518091039020600001600d01819055508160c001516002846040516108dd919061130a565b90815260200160405180910390206000016006019080519060200190610904929190610a81565b5081610120015160028460405161091b919061130a565b90815260200160405180910390206000016009019080519060200190610942929190610a81565b507f6f8a6b891c8cedf396d52f145877e10376e73ad01aa868f31dd27d254283e02083600285604051610975919061130a565b9081526020016040518091039020604051610991929190611373565b60405180910390a1600190505b92915050565b6000600115156003836040516109ba919061130a565b908152602001604051809103902060009054906101000a900460ff161515149050919050565b828054600181600116156101000203166002900490600052602060002090601f016020900481019282601f10610a2157805160ff1916838001178555610a4f565b82800160010185558215610a4f579182015b82811115610a4e578251825591602001919060010190610a33565b5b509050610a5c9190610b01565b5090565b60405180606001604052806060815260200160608152602001600081525090565b828054600181600116156101000203166002900490600052602060002090601f016020900481019282601f10610ac257805160ff1916838001178555610af0565b82800160010185558215610af0579182015b82811115610aef578251825591602001919060010190610ad4565b5b509050610afd9190610b01565b5090565b610b2391905b80821115610b1f576000816000905550600101610b07565b5090565b90565b600082601f830112610b3757600080fd5b8135610b4a610b45826113d7565b6113aa565b91508082526020830160208301858383011115610b6657600080fd5b610b7183828461152d565b50505092915050565b600082601f830112610b8b57600080fd5b8135610b9e610b9982611403565b6113aa565b91508082526020830160208301858383011115610bba57600080fd5b610bc583828461152d565b50505092915050565b60006101c08284031215610be157600080fd5b610bec6101c06113aa565b9050600082013567ffffffffffffffff811115610c0857600080fd5b610c1484828501610b26565b600083015250602082013567ffffffffffffffff811115610c3457600080fd5b610c4084828501610b26565b602083015250604082013567ffffffffffffffff811115610c6057600080fd5b610c6c84828501610b26565b604083015250606082013567ffffffffffffffff811115610c8c57600080fd5b610c9884828501610b26565b606083015250608082013567ffffffffffffffff811115610cb857600080fd5b610cc484828501610b26565b60808301525060a082013567ffffffffffffffff811115610ce457600080fd5b610cf084828501610b26565b60a08301525060c082013567ffffffffffffffff811115610d1057600080fd5b610d1c84828501610b26565b60c08301525060e0610d3084828501610df0565b60e08301525061010082013567ffffffffffffffff811115610d5157600080fd5b610d5d84828501610b26565b6101008301525061012082013567ffffffffffffffff811115610d7f57600080fd5b610d8b84828501610b26565b61012083015250610140610da184828501610e05565b61014083015250610160610db784828501610df0565b61016083015250610180610dcd84828501610df0565b610180830152506101a0610de384828501610df0565b6101a08301525092915050565b600081359050610dff816115db565b92915050565b600081359050610e14816115f2565b92915050565b600060208284031215610e2c57600080fd5b600082013567ffffffffffffffff811115610e4657600080fd5b610e5284828501610b7a565b91505092915050565b60008060408385031215610e6e57600080fd5b600083013567ffffffffffffffff811115610e8857600080fd5b610e9485828601610b7a565b925050602083013567ffffffffffffffff811115610eb157600080fd5b610ebd85828601610bce565b9150509250929050565b610ed0816114d8565b82525050565b610edf816114ea565b82525050565b600081546001811660008114610f025760018114610f2757610f6b565b607f6002830416610f138187611469565b955060ff1983168652808601935050610f6b565b60028204610f358187611469565b9550610f408561142f565b60005b82811015610f6257815481890152600182019150602081019050610f43565b82880195505050505b505092915050565b6000610f7e8261145e565b610f888185611485565b9350610f9881856020860161153c565b610fa1816115bd565b840191505092915050565b6000610fb78261145e565b610fc18185611496565b9350610fd181856020860161153c565b80840191505092915050565b6000610fe882611453565b610ff28185611474565b935061100281856020860161153c565b61100b816115bd565b840191505092915050565b60008154600181166000811461103357600181146110595761109d565b607f60028304166110448187611474565b955060ff19831686526020860193505061109d565b600282046110678187611474565b955061107285611441565b60005b8281101561109457815481890152600182019150602081019050611075565b80880195505050505b505092915050565b600060608301600083015184820360008601526110c28282610fdd565b915050602083015184820360208601526110dc8282610fdd565b91505060408301516110f160408601826112d5565b508091505092915050565b600060408301600080840185830360008701526111198382611145565b925050600e840154905061112c8161156f565b6111396020870182610ec7565b50819250505092915050565b60006101c08301600080840185830360008701526111638382611016565b92505060018401858303602087015261117c8382611016565b9250506002840185830360408701526111958382611016565b9250506003840185830360608701526111ae8382611016565b9250506004840185830360808701526111c78382611016565b9250506005840185830360a08701526111e08382611016565b9250506006840185830360c08701526111f98382611016565b9250506007840154905061120c81611589565b61121960e08701826112d5565b50600884018583036101008701526112318382611016565b9250506009840185830361012087015261124b8382611016565b925050600a840154905061125e816115a3565b61126c6101408701826112e4565b50600b840154905061127d81611589565b61128b6101608701826112d5565b50600c840154905061129c81611589565b6112aa6101808701826112d5565b50600d84015490506112bb81611589565b6112c96101a08701826112d5565b50819250505092915050565b6112de81611516565b82525050565b6112ed81611520565b82525050565b60006112ff8284610ee5565b915081905092915050565b60006113168284610fac565b915081905092915050565b60006020820190506113366000830184610ed6565b92915050565b600060408201905081810360008301526113568185610f73565b9050818103602083015261136a81846110a5565b90509392505050565b6000604082019050818103600083015261138d8185610f73565b905081810360208301526113a181846110fc565b90509392505050565b6000604051905081810181811067ffffffffffffffff821117156113cd57600080fd5b8060405250919050565b600067ffffffffffffffff8211156113ee57600080fd5b601f19601f8301169050602081019050919050565b600067ffffffffffffffff82111561141a57600080fd5b601f19601f8301169050602081019050919050565b60008160005260206000209050919050565b60008160005260206000209050919050565b600081519050919050565b600081519050919050565b600081905092915050565b600082825260208201905092915050565b600082825260208201905092915050565b600081905092915050565b600073ffffffffffffffffffffffffffffffffffffffff82169050919050565b6000819050919050565b600060ff82169050919050565b60006114e3826114f6565b9050919050565b60008115159050919050565b600073ffffffffffffffffffffffffffffffffffffffff82169050919050565b6000819050919050565b600060ff82169050919050565b82818337600083830152505050565b60005b8381101561155a57808201518184015260208101905061153f565b83811115611569576000848401525b50505050565b600061158261157d836115ce565b6114a1565b9050919050565b600061159c611597836115ce565b6114c1565b9050919050565b60006115b66115b1836115ce565b6114cb565b9050919050565b6000601f19601f8301169050919050565b60008160001c9050919050565b6115e481611516565b81146115ef57600080fd5b50565b6115fb81611520565b811461160657600080fd5b5056fea265627a7a72305820d1d32506a9aaabdd6c1c0f3fdba3e403eae7c3c9fa0cf8960628587a186162666c6578706572696d656e74616cf50037",
  "source": "pragma solidity >=0.5.0 <0.6.0;\npragma experimental ABIEncoderV2;\n\ncontract Piper {\n  address owner;\n  string name;\n\n  struct Extension {\n    string hash;\n    string developer;\n    string developerETH;\n    string name;\n    string overview;\n    string category;\n    string version;\n    uint size;\n    string iconURL;\n    string crx;\n    uint8 rating;\n    uint reviews;\n    uint downloads;\n    uint updated;\n  }\n\n  struct ExtensionWithOwner {\n    Extension extension;\n    address owner;\n  }\n\n  mapping(string => ExtensionWithOwner) extensions;\n  mapping(string => bool) hasExtension;\n\n  struct ExtensionVersion {\n    string version;\n    string crx;\n    uint created;\n  }\n\n  mapping(string => ExtensionVersion[]) versions;\n\n  constructor() public {\n    owner = msg.sender;\n    name = \"Piper\";\n  }\n\n  function isExtension(string memory _hash) public view returns(bool) {\n    return hasExtension[_hash] == true;\n  }\n\n  event CreateNewExtensionEvent(string hash, ExtensionWithOwner extension);\n  event UpdateExtensionByHashEvent(string hash, ExtensionWithOwner extension);\n  event CreateNewExtensionVersionEvent(string hash, ExtensionVersion version);\n\n  function createNewExtension(string memory _hash, Extension memory _extension) public returns(bool) {\n    // Creating a new extension.\n    if (!isExtension(_hash)) {\n      // Create new extension.\n      extensions[_hash].extension = _extension;\n      extensions[_hash].owner = msg.sender;\n      hasExtension[_hash] = true;\n\n      emit CreateNewExtensionEvent(_hash, extensions[_hash]);\n\n      return true;\n    } else {\n      // Updating the extension.\n\n      // Check if extension owner is the one trying to edit it.\n      require(msg.sender == extensions[_hash].owner);\n\n      // Check whether they are updating the version.\n      if (keccak256(bytes(_extension.crx)) != keccak256(bytes(extensions[_hash].extension.crx))) {\n        require(keccak256(bytes(_extension.version)) != keccak256(bytes(extensions[_hash].extension.version)));\n\n        ExtensionVersion memory _extensionVersion = ExtensionVersion(_extension.version, _extension.crx, _extension.updated);\n        versions[_hash].push(_extensionVersion);\n\n        extensions[_hash].extension.developer = _extension.developer;\n        extensions[_hash].extension.developerETH = _extension.developerETH;\n        extensions[_hash].extension.name = _extension.name;\n        extensions[_hash].extension.overview = _extension.overview;\n        extensions[_hash].extension.category = _extension.category;\n        extensions[_hash].extension.size = _extension.size;\n        extensions[_hash].extension.iconURL = _extension.iconURL;\n        extensions[_hash].extension.updated = _extension.updated;\n\n        emit CreateNewExtensionVersionEvent(_hash, _extensionVersion);\n\n        return true;\n      }\n\n      // Update the extension.\n      extensions[_hash].extension.developer = _extension.developer;\n      extensions[_hash].extension.developerETH = _extension.developerETH;\n      extensions[_hash].extension.name = _extension.name;\n      extensions[_hash].extension.overview = _extension.overview;\n      extensions[_hash].extension.category = _extension.category;\n      extensions[_hash].extension.size = _extension.size;\n      extensions[_hash].extension.iconURL = _extension.iconURL;\n      extensions[_hash].extension.updated = _extension.updated;\n      extensions[_hash].extension.version = _extension.version;\n      extensions[_hash].extension.crx = _extension.crx;\n\n      emit UpdateExtensionByHashEvent(_hash, extensions[_hash]);\n\n      return true;\n    }\n  }\n}\n",
  "sourcePath": "/home/robin/piper/contracts/Piper.sol",
  "compiler": {
    "name": "solc",
    "version": "0.5.8+commit.23d335f2.Emscripten.clang"
  },
  "schemaVersion": "3.0.11",
  "updatedAt": "2019-07-05T05:16:09.253Z",
  "devdoc": {
    "methods": {}
  },
  "userdoc": {
    "methods": {}
  }
}