{
  "contractName": "Piper",
  "abi": [
    {
      "inputs": [],
      "payable": false,
      "stateMutability": "nonpayable",
      "type": "constructor"
    },
    {
      "constant": true,
      "inputs": [],
      "name": "speak",
      "outputs": [
        {
          "name": "",
          "type": "string"
        }
      ],
      "payable": false,
      "stateMutability": "view",
      "type": "function"
    },
    {
      "constant": false,
      "inputs": [
        {
          "name": "newSaying",
          "type": "string"
        }
      ],
      "name": "saySomethingElse",
      "outputs": [
        {
          "name": "",
          "type": "bool"
        }
      ],
      "payable": false,
      "stateMutability": "nonpayable",
      "type": "function"
    }
  ],
  "bytecode": "0x608060405234801561001057600080fd5b506040518060400160405280600c81526020017f48656c6c6f20576f726c642100000000000000000000000000000000000000008152506000908051906020019061005c929190610062565b50610107565b828054600181600116156101000203166002900490600052602060002090601f016020900481019282601f106100a357805160ff19168380011785556100d1565b828001600101855582156100d1579182015b828111156100d05782518255916020019190600101906100b5565b5b5090506100de91906100e2565b5090565b61010491905b808211156101005760008160009055506001016100e8565b5090565b90565b610326806101166000396000f3fe608060405234801561001057600080fd5b50600436106100365760003560e01c806350d853151461003b578063b07d7e39146100be575b600080fd5b610043610191565b6040518080602001828103825283818151815260200191508051906020019080838360005b83811015610083578082015181840152602081019050610068565b50505050905090810190601f1680156100b05780820380516001836020036101000a031916815260200191505b509250505060405180910390f35b610177600480360360208110156100d457600080fd5b81019080803590602001906401000000008111156100f157600080fd5b82018360208201111561010357600080fd5b8035906020019184600183028401116401000000008311171561012557600080fd5b91908080601f016020809104026020016040519081016040528093929190818152602001838380828437600081840152601f19601f820116905080830192505050505050509192919290505050610233565b604051808215151515815260200191505060405180910390f35b606060008054600181600116156101000203166002900480601f0160208091040260200160405190810160405280929190818152602001828054600181600116156101000203166002900480156102295780601f106101fe57610100808354040283529160200191610229565b820191906000526020600020905b81548152906001019060200180831161020c57829003601f168201915b5050505050905090565b6000816000908051906020019061024b929190610255565b5060019050919050565b828054600181600116156101000203166002900490600052602060002090601f016020900481019282601f1061029657805160ff19168380011785556102c4565b828001600101855582156102c4579182015b828111156102c35782518255916020019190600101906102a8565b5b5090506102d191906102d5565b5090565b6102f791905b808211156102f35760008160009055506001016102db565b5090565b9056fea165627a7a72305820e1a72b43b49f61ea6851fd41aa5a7198c1617aa80eef24ef87430779a7fa19fa0029",
  "source": "pragma solidity ^0.5.0;\n\ncontract Piper {\n  string saySomething;\n\n  constructor() public  {\n    saySomething = \"Hello World!\";\n  }\n\n  function speak() public view returns(string memory) {\n    return saySomething;\n  }\n\n  function saySomethingElse(string memory newSaying) public returns(bool) {\n    saySomething = newSaying;\n    return true;\n  }\n}\n",
  "sourcePath": "/home/robin/piper/contracts/Piper.sol",
  "compiler": {
    "name": "solc",
    "version": "0.5.8+commit.23d335f2.Emscripten.clang"
  },
  "schemaVersion": "3.0.11",
  "updatedAt": "2019-06-29T03:24:24.574Z",
  "devdoc": {
    "methods": {}
  },
  "userdoc": {
    "methods": {}
  }
}