{
  "contractName": "Piper",
  "abi": [
    {
      "inputs": [],
      "payable": false,
      "stateMutability": "nonpayable",
      "type": "constructor"
    },
    {
      "constant": true,
      "inputs": [
        {
          "name": "hash",
          "type": "string"
        }
      ],
      "name": "getExtensionByHash",
      "outputs": [
        {
          "components": [
            {
              "name": "owner",
              "type": "address"
            },
            {
              "name": "hash",
              "type": "string"
            },
            {
              "name": "developer",
              "type": "string"
            },
            {
              "name": "developerETH",
              "type": "address"
            },
            {
              "name": "name",
              "type": "string"
            },
            {
              "name": "overview",
              "type": "string"
            },
            {
              "name": "category",
              "type": "string"
            },
            {
              "name": "version",
              "type": "string"
            },
            {
              "name": "extensionSize",
              "type": "uint256"
            },
            {
              "name": "iconURL",
              "type": "string"
            },
            {
              "name": "extensionCrxURL",
              "type": "string"
            },
            {
              "name": "previews",
              "type": "string[]"
            },
            {
              "name": "rating",
              "type": "uint8"
            },
            {
              "name": "reviews",
              "type": "uint256"
            },
            {
              "name": "downloads",
              "type": "uint256"
            },
            {
              "name": "updated",
              "type": "uint256"
            }
          ],
          "name": "",
          "type": "tuple"
        }
      ],
      "payable": false,
      "stateMutability": "view",
      "type": "function"
    },
    {
      "constant": false,
      "inputs": [
        {
          "name": "hash",
          "type": "string"
        },
        {
          "components": [
            {
              "name": "owner",
              "type": "address"
            },
            {
              "name": "hash",
              "type": "string"
            },
            {
              "name": "developer",
              "type": "string"
            },
            {
              "name": "developerETH",
              "type": "address"
            },
            {
              "name": "name",
              "type": "string"
            },
            {
              "name": "overview",
              "type": "string"
            },
            {
              "name": "category",
              "type": "string"
            },
            {
              "name": "version",
              "type": "string"
            },
            {
              "name": "extensionSize",
              "type": "uint256"
            },
            {
              "name": "iconURL",
              "type": "string"
            },
            {
              "name": "extensionCrxURL",
              "type": "string"
            },
            {
              "name": "previews",
              "type": "string[]"
            },
            {
              "name": "rating",
              "type": "uint8"
            },
            {
              "name": "reviews",
              "type": "uint256"
            },
            {
              "name": "downloads",
              "type": "uint256"
            },
            {
              "name": "updated",
              "type": "uint256"
            }
          ],
          "name": "extension",
          "type": "tuple"
        }
      ],
      "name": "createNewExtension",
      "outputs": [
        {
          "name": "",
          "type": "bool"
        }
      ],
      "payable": false,
      "stateMutability": "nonpayable",
      "type": "function"
    },
    {
      "constant": false,
      "inputs": [
        {
          "name": "hash",
          "type": "string"
        },
        {
          "components": [
            {
              "name": "owner",
              "type": "address"
            },
            {
              "name": "hash",
              "type": "string"
            },
            {
              "name": "developer",
              "type": "string"
            },
            {
              "name": "developerETH",
              "type": "address"
            },
            {
              "name": "name",
              "type": "string"
            },
            {
              "name": "overview",
              "type": "string"
            },
            {
              "name": "category",
              "type": "string"
            },
            {
              "name": "version",
              "type": "string"
            },
            {
              "name": "extensionSize",
              "type": "uint256"
            },
            {
              "name": "iconURL",
              "type": "string"
            },
            {
              "name": "extensionCrxURL",
              "type": "string"
            },
            {
              "name": "previews",
              "type": "string[]"
            },
            {
              "name": "rating",
              "type": "uint8"
            },
            {
              "name": "reviews",
              "type": "uint256"
            },
            {
              "name": "downloads",
              "type": "uint256"
            },
            {
              "name": "updated",
              "type": "uint256"
            }
          ],
          "name": "extension",
          "type": "tuple"
        }
      ],
      "name": "updateExtensionByHash",
      "outputs": [
        {
          "name": "",
          "type": "bool"
        }
      ],
      "payable": false,
      "stateMutability": "nonpayable",
      "type": "function"
    }
  ],
  "bytecode": "0x60806040523480156200001157600080fd5b50336000806101000a81548173ffffffffffffffffffffffffffffffffffffffff021916908373ffffffffffffffffffffffffffffffffffffffff1602179055506040518060400160405280600581526020017f5069706572000000000000000000000000000000000000000000000000000000815250600190805190602001906200009f929190620000a6565b5062000155565b828054600181600116156101000203166002900490600052602060002090601f016020900481019282601f10620000e957805160ff19168380011785556200011a565b828001600101855582156200011a579182015b8281111562000119578251825591602001919060010190620000fc565b5b5090506200012991906200012d565b5090565b6200015291905b808211156200014e57600081600090555060010162000134565b5090565b90565b6119b380620001656000396000f3fe608060405234801561001057600080fd5b50600436106100415760003560e01c80632c8b39261461004657806334a23c0f146100765780634bb132f7146100a6575b600080fd5b610060600480360361005b91908101906112f5565b6100d6565b60405161006d9190611738565b60405180910390f35b610090600480360361008b9190810190611336565b610841565b60405161009d919061171d565b60405180910390f35b6100c060048036036100bb9190810190611336565b610acc565b6040516100cd919061171d565b60405180910390f35b6100de610d27565b81805190602001206002836040516100f69190611706565b908152602001604051809103902060010160405161011491906116ef565b60405180910390201461012657600080fd5b6002826040516101369190611706565b9081526020016040518091039020604051806102000160405290816000820160009054906101000a900473ffffffffffffffffffffffffffffffffffffffff1673ffffffffffffffffffffffffffffffffffffffff1673ffffffffffffffffffffffffffffffffffffffff168152602001600182018054600181600116156101000203166002900480601f01602080910402602001604051908101604052809291908181526020018280546001816001161561010002031660029004801561023f5780601f106102145761010080835404028352916020019161023f565b820191906000526020600020905b81548152906001019060200180831161022257829003601f168201915b50505050508152602001600282018054600181600116156101000203166002900480601f0160208091040260200160405190810160405280929190818152602001828054600181600116156101000203166002900480156102e15780601f106102b6576101008083540402835291602001916102e1565b820191906000526020600020905b8154815290600101906020018083116102c457829003601f168201915b505050505081526020016003820160009054906101000a900473ffffffffffffffffffffffffffffffffffffffff1673ffffffffffffffffffffffffffffffffffffffff1673ffffffffffffffffffffffffffffffffffffffff168152602001600482018054600181600116156101000203166002900480601f0160208091040260200160405190810160405280929190818152602001828054600181600116156101000203166002900480156103d95780601f106103ae576101008083540402835291602001916103d9565b820191906000526020600020905b8154815290600101906020018083116103bc57829003601f168201915b50505050508152602001600582018054600181600116156101000203166002900480601f01602080910402602001604051908101604052809291908181526020018280546001816001161561010002031660029004801561047b5780601f106104505761010080835404028352916020019161047b565b820191906000526020600020905b81548152906001019060200180831161045e57829003601f168201915b50505050508152602001600682018054600181600116156101000203166002900480601f01602080910402602001604051908101604052809291908181526020018280546001816001161561010002031660029004801561051d5780601f106104f25761010080835404028352916020019161051d565b820191906000526020600020905b81548152906001019060200180831161050057829003601f168201915b50505050508152602001600782018054600181600116156101000203166002900480601f0160208091040260200160405190810160405280929190818152602001828054600181600116156101000203166002900480156105bf5780601f10610594576101008083540402835291602001916105bf565b820191906000526020600020905b8154815290600101906020018083116105a257829003601f168201915b5050505050815260200160088201548152602001600982018054600181600116156101000203166002900480601f01602080910402602001604051908101604052809291908181526020018280546001816001161561010002031660029004801561066b5780601f106106405761010080835404028352916020019161066b565b820191906000526020600020905b81548152906001019060200180831161064e57829003601f168201915b50505050508152602001600a82018054600181600116156101000203166002900480601f01602080910402602001604051908101604052809291908181526020018280546001816001161561010002031660029004801561070d5780601f106106e25761010080835404028352916020019161070d565b820191906000526020600020905b8154815290600101906020018083116106f057829003601f168201915b50505050508152602001600b8201805480602002602001604051908101604052809291908181526020016000905b828210156107f7578382906000526020600020018054600181600116156101000203166002900480601f0160208091040260200160405190810160405280929190818152602001828054600181600116156101000203166002900480156107e35780601f106107b8576101008083540402835291602001916107e3565b820191906000526020600020905b8154815290600101906020018083116107c657829003601f168201915b50505050508152602001906001019061073b565b505050508152602001600c820160009054906101000a900460ff1660ff1660ff168152602001600d8201548152602001600e8201548152602001600f820154815250509050919050565b60006002836040516108539190611706565b908152602001604051809103902060000160009054906101000a900473ffffffffffffffffffffffffffffffffffffffff1673ffffffffffffffffffffffffffffffffffffffff163373ffffffffffffffffffffffffffffffffffffffff16146108bc57600080fd5b816002846040516108cd9190611706565b908152602001604051809103902060008201518160000160006101000a81548173ffffffffffffffffffffffffffffffffffffffff021916908373ffffffffffffffffffffffffffffffffffffffff160217905550602082015181600101908051906020019061093e929190610dd3565b50604082015181600201908051906020019061095b929190610dd3565b5060608201518160030160006101000a81548173ffffffffffffffffffffffffffffffffffffffff021916908373ffffffffffffffffffffffffffffffffffffffff16021790555060808201518160040190805190602001906109bf929190610dd3565b5060a08201518160050190805190602001906109dc929190610dd3565b5060c08201518160060190805190602001906109f9929190610dd3565b5060e0820151816007019080519060200190610a16929190610dd3565b506101008201518160080155610120820151816009019080519060200190610a3f929190610dd3565b5061014082015181600a019080519060200190610a5d929190610dd3565b5061016082015181600b019080519060200190610a7b929190610e53565b5061018082015181600c0160006101000a81548160ff021916908360ff1602179055506101a082015181600d01556101c082015181600e01556101e082015181600f01559050506001905092915050565b60008280519060200120600284604051610ae69190611706565b9081526020016040518091039020600101604051610b0491906116ef565b60405180910390201415610b1757600080fd5b81600284604051610b289190611706565b908152602001604051809103902060008201518160000160006101000a81548173ffffffffffffffffffffffffffffffffffffffff021916908373ffffffffffffffffffffffffffffffffffffffff1602179055506020820151816001019080519060200190610b99929190610dd3565b506040820151816002019080519060200190610bb6929190610dd3565b5060608201518160030160006101000a81548173ffffffffffffffffffffffffffffffffffffffff021916908373ffffffffffffffffffffffffffffffffffffffff1602179055506080820151816004019080519060200190610c1a929190610dd3565b5060a0820151816005019080519060200190610c37929190610dd3565b5060c0820151816006019080519060200190610c54929190610dd3565b5060e0820151816007019080519060200190610c71929190610dd3565b506101008201518160080155610120820151816009019080519060200190610c9a929190610dd3565b5061014082015181600a019080519060200190610cb8929190610dd3565b5061016082015181600b019080519060200190610cd6929190610e53565b5061018082015181600c0160006101000a81548160ff021916908360ff1602179055506101a082015181600d01556101c082015181600e01556101e082015181600f01559050506001905092915050565b604051806102000160405280600073ffffffffffffffffffffffffffffffffffffffff1681526020016060815260200160608152602001600073ffffffffffffffffffffffffffffffffffffffff1681526020016060815260200160608152602001606081526020016060815260200160008152602001606081526020016060815260200160608152602001600060ff1681526020016000815260200160008152602001600081525090565b828054600181600116156101000203166002900490600052602060002090601f016020900481019282601f10610e1457805160ff1916838001178555610e42565b82800160010185558215610e42579182015b82811115610e41578251825591602001919060010190610e26565b5b509050610e4f9190610eb3565b5090565b828054828255906000526020600020908101928215610ea2579160200282015b82811115610ea1578251829080519060200190610e91929190610dd3565b5091602001919060010190610e73565b5b509050610eaf9190610ed8565b5090565b610ed591905b80821115610ed1576000816000905550600101610eb9565b5090565b90565b610f0191905b80821115610efd5760008181610ef49190610f04565b50600101610ede565b5090565b90565b50805460018160011615610100020316600290046000825580601f10610f2a5750610f49565b601f016020900490600052602060002090810190610f489190610eb3565b5b50565b600081359050610f5b81611934565b92915050565b600082601f830112610f7257600080fd5b8135610f85610f8082611787565b61175a565b9150818183526020840193506020810190508360005b83811015610fcb5781358601610fb18882610fd5565b845260208401935060208301925050600181019050610f9b565b5050505092915050565b600082601f830112610fe657600080fd5b8135610ff9610ff4826117af565b61175a565b9150808252602083016020830185838301111561101557600080fd5b6110208382846118e1565b50505092915050565b600082601f83011261103a57600080fd5b813561104d611048826117db565b61175a565b9150808252602083016020830185838301111561106957600080fd5b6110748382846118e1565b50505092915050565b6000610200828403121561109057600080fd5b61109b61020061175a565b905060006110ab84828501610f4c565b600083015250602082013567ffffffffffffffff8111156110cb57600080fd5b6110d784828501610fd5565b602083015250604082013567ffffffffffffffff8111156110f757600080fd5b61110384828501610fd5565b604083015250606061111784828501610f4c565b606083015250608082013567ffffffffffffffff81111561113757600080fd5b61114384828501610fd5565b60808301525060a082013567ffffffffffffffff81111561116357600080fd5b61116f84828501610fd5565b60a08301525060c082013567ffffffffffffffff81111561118f57600080fd5b61119b84828501610fd5565b60c08301525060e082013567ffffffffffffffff8111156111bb57600080fd5b6111c784828501610fd5565b60e0830152506101006111dc848285016112cb565b6101008301525061012082013567ffffffffffffffff8111156111fe57600080fd5b61120a84828501610fd5565b6101208301525061014082013567ffffffffffffffff81111561122c57600080fd5b61123884828501610fd5565b6101408301525061016082013567ffffffffffffffff81111561125a57600080fd5b61126684828501610f61565b6101608301525061018061127c848285016112e0565b610180830152506101a0611292848285016112cb565b6101a0830152506101c06112a8848285016112cb565b6101c0830152506101e06112be848285016112cb565b6101e08301525092915050565b6000813590506112da8161194b565b92915050565b6000813590506112ef81611962565b92915050565b60006020828403121561130757600080fd5b600082013567ffffffffffffffff81111561132157600080fd5b61132d84828501611029565b91505092915050565b6000806040838503121561134957600080fd5b600083013567ffffffffffffffff81111561136357600080fd5b61136f85828601611029565b925050602083013567ffffffffffffffff81111561138c57600080fd5b6113988582860161107d565b9150509250929050565b60006113ae8383611508565b905092915050565b6113bf8161188c565b82525050565b60006113d082611826565b6113da8185611854565b9350836020820285016113ec85611807565b8060005b85811015611428578484038952815161140985826113a2565b945061141483611847565b925060208a019950506001810190506113f0565b50829750879550505050505092915050565b6114438161189e565b82525050565b600081546001811660008114611466576001811461148b576114cf565b607f60028304166114778187611865565b955060ff19831686528086019350506114cf565b600282046114998187611865565b95506114a485611814565b60005b828110156114c6578154818901526001820191506020810190506114a7565b82880195505050505b505092915050565b60006114e28261183c565b6114ec8185611881565b93506114fc8185602086016118f0565b80840191505092915050565b600061151382611831565b61151d8185611870565b935061152d8185602086016118f0565b61153681611923565b840191505092915050565b60006102008301600083015161155a60008601826113b6565b50602083015184820360208601526115728282611508565b9150506040830151848203604086015261158c8282611508565b91505060608301516115a160608601826113b6565b50608083015184820360808601526115b98282611508565b91505060a083015184820360a08601526115d38282611508565b91505060c083015184820360c08601526115ed8282611508565b91505060e083015184820360e08601526116078282611508565b91505061010083015161161e6101008601826116d1565b506101208301518482036101208601526116388282611508565b9150506101408301518482036101408601526116548282611508565b91505061016083015184820361016086015261167082826113c5565b9150506101808301516116876101808601826116e0565b506101a083015161169c6101a08601826116d1565b506101c08301516116b16101c08601826116d1565b506101e08301516116c66101e08601826116d1565b508091505092915050565b6116da816118ca565b82525050565b6116e9816118d4565b82525050565b60006116fb8284611449565b915081905092915050565b600061171282846114d7565b915081905092915050565b6000602082019050611732600083018461143a565b92915050565b600060208201905081810360008301526117528184611541565b905092915050565b6000604051905081810181811067ffffffffffffffff8211171561177d57600080fd5b8060405250919050565b600067ffffffffffffffff82111561179e57600080fd5b602082029050602081019050919050565b600067ffffffffffffffff8211156117c657600080fd5b601f19601f8301169050602081019050919050565b600067ffffffffffffffff8211156117f257600080fd5b601f19601f8301169050602081019050919050565b6000602082019050919050565b60008160005260206000209050919050565b600081519050919050565b600081519050919050565b600081519050919050565b6000602082019050919050565b600082825260208201905092915050565b600081905092915050565b600082825260208201905092915050565b600081905092915050565b6000611897826118aa565b9050919050565b60008115159050919050565b600073ffffffffffffffffffffffffffffffffffffffff82169050919050565b6000819050919050565b600060ff82169050919050565b82818337600083830152505050565b60005b8381101561190e5780820151818401526020810190506118f3565b8381111561191d576000848401525b50505050565b6000601f19601f8301169050919050565b61193d8161188c565b811461194857600080fd5b50565b611954816118ca565b811461195f57600080fd5b50565b61196b816118d4565b811461197657600080fd5b5056fea265627a7a7230582067b132dbe48d719dd108bd867e26bc44aaa6c6f8b3bf7a33c179fc1f8c8705566c6578706572696d656e74616cf50037",
  "source": "pragma solidity >=0.4.0 <0.6.0;\npragma experimental ABIEncoderV2;\n\ncontract Piper {\n  address owner;\n  string name;\n\n  struct Extension {\n    address owner;\n    string hash;\n    string developer;\n    address developerETH;\n    string name;\n    string overview;\n    string category;\n    string version;\n    uint extensionSize;\n    string iconURL;\n    string extensionCrxURL;\n    string[] previews;\n    uint8 rating;\n    uint reviews;\n    uint downloads;\n    uint updated;\n  }\n  mapping(string => Extension) extensions;\n\n  constructor() public {\n    owner = msg.sender;\n    name = \"Piper\";\n  }\n\n  function getExtensionByHash(string memory hash) public view returns(Extension memory) {\n    // Make sure the extension exists.\n    require(keccak256(bytes(extensions[hash].hash)) == keccak256(bytes(hash)));\n\n    return extensions[hash];\n  }\n\n  function createNewExtension(string memory hash, Extension memory extension) public returns(bool) {\n    // Make sure that the extension doesnt exist.\n    require(keccak256(bytes(extensions[hash].hash)) != keccak256(bytes(hash)));\n\n    // Create new extension.\n    extensions[hash] = extension;\n\n    return true;\n  }\n\n  function updateExtensionByHash(string memory hash, Extension memory extension) public returns(bool) {\n    // Check if extension owner is the one trying to edit it.\n    require(msg.sender == extensions[hash].owner);\n\n    // Update the extension.\n    extensions[hash] = extension;\n\n    return true;\n  }\n}\n",
  "sourcePath": "/home/robin/piper/contracts/Piper.sol",
  "compiler": {
    "name": "solc",
    "version": "0.5.8+commit.23d335f2.Emscripten.clang"
  },
  "schemaVersion": "3.0.11",
  "updatedAt": "2019-06-29T14:18:20.640Z",
  "devdoc": {
    "methods": {}
  },
  "userdoc": {
    "methods": {}
  }
}