{
  "contractName": "Piper",
  "abi": [
    {
      "inputs": [],
      "payable": false,
      "stateMutability": "nonpayable",
      "type": "constructor"
    },
    {
      "constant": true,
      "inputs": [
        {
          "name": "_hash",
          "type": "string"
        }
      ],
      "name": "isExtension",
      "outputs": [
        {
          "name": "",
          "type": "bool"
        }
      ],
      "payable": false,
      "stateMutability": "view",
      "type": "function"
    },
    {
      "constant": true,
      "inputs": [
        {
          "name": "_hash",
          "type": "string"
        }
      ],
      "name": "getExtensionByHash",
      "outputs": [
        {
          "components": [
            {
              "name": "hash",
              "type": "string"
            },
            {
              "name": "developer",
              "type": "string"
            },
            {
              "name": "developerETH",
              "type": "string"
            },
            {
              "name": "name",
              "type": "string"
            },
            {
              "name": "overview",
              "type": "string"
            },
            {
              "name": "category",
              "type": "string"
            },
            {
              "name": "version",
              "type": "string"
            },
            {
              "name": "extensionSize",
              "type": "uint256"
            },
            {
              "name": "iconURL",
              "type": "string"
            },
            {
              "name": "extensionCrxURL",
              "type": "string"
            },
            {
              "name": "previews",
              "type": "string[]"
            },
            {
              "name": "rating",
              "type": "uint8"
            },
            {
              "name": "reviews",
              "type": "uint256"
            },
            {
              "name": "downloads",
              "type": "uint256"
            },
            {
              "name": "updated",
              "type": "uint256"
            },
            {
              "name": "isExtension",
              "type": "bool"
            }
          ],
          "name": "",
          "type": "tuple"
        }
      ],
      "payable": false,
      "stateMutability": "view",
      "type": "function"
    },
    {
      "constant": false,
      "inputs": [
        {
          "name": "_hash",
          "type": "string"
        },
        {
          "components": [
            {
              "name": "hash",
              "type": "string"
            },
            {
              "name": "developer",
              "type": "string"
            },
            {
              "name": "developerETH",
              "type": "string"
            },
            {
              "name": "name",
              "type": "string"
            },
            {
              "name": "overview",
              "type": "string"
            },
            {
              "name": "category",
              "type": "string"
            },
            {
              "name": "version",
              "type": "string"
            },
            {
              "name": "extensionSize",
              "type": "uint256"
            },
            {
              "name": "iconURL",
              "type": "string"
            },
            {
              "name": "extensionCrxURL",
              "type": "string"
            },
            {
              "name": "previews",
              "type": "string[]"
            },
            {
              "name": "rating",
              "type": "uint8"
            },
            {
              "name": "reviews",
              "type": "uint256"
            },
            {
              "name": "downloads",
              "type": "uint256"
            },
            {
              "name": "updated",
              "type": "uint256"
            },
            {
              "name": "isExtension",
              "type": "bool"
            }
          ],
          "name": "_extension",
          "type": "tuple"
        }
      ],
      "name": "createNewExtension",
      "outputs": [
        {
          "name": "",
          "type": "bool"
        }
      ],
      "payable": false,
      "stateMutability": "nonpayable",
      "type": "function"
    },
    {
      "constant": false,
      "inputs": [
        {
          "name": "_hash",
          "type": "string"
        },
        {
          "components": [
            {
              "name": "hash",
              "type": "string"
            },
            {
              "name": "developer",
              "type": "string"
            },
            {
              "name": "developerETH",
              "type": "string"
            },
            {
              "name": "name",
              "type": "string"
            },
            {
              "name": "overview",
              "type": "string"
            },
            {
              "name": "category",
              "type": "string"
            },
            {
              "name": "version",
              "type": "string"
            },
            {
              "name": "extensionSize",
              "type": "uint256"
            },
            {
              "name": "iconURL",
              "type": "string"
            },
            {
              "name": "extensionCrxURL",
              "type": "string"
            },
            {
              "name": "previews",
              "type": "string[]"
            },
            {
              "name": "rating",
              "type": "uint8"
            },
            {
              "name": "reviews",
              "type": "uint256"
            },
            {
              "name": "downloads",
              "type": "uint256"
            },
            {
              "name": "updated",
              "type": "uint256"
            },
            {
              "name": "isExtension",
              "type": "bool"
            }
          ],
          "name": "_extension",
          "type": "tuple"
        }
      ],
      "name": "updateExtensionByHash",
      "outputs": [
        {
          "name": "",
          "type": "bool"
        }
      ],
      "payable": false,
      "stateMutability": "nonpayable",
      "type": "function"
    }
  ],
  "bytecode": "0x60806040523480156200001157600080fd5b50336000806101000a81548173ffffffffffffffffffffffffffffffffffffffff021916908373ffffffffffffffffffffffffffffffffffffffff1602179055506040518060400160405280600581526020017f5069706572000000000000000000000000000000000000000000000000000000815250600190805190602001906200009f929190620000a6565b5062000155565b828054600181600116156101000203166002900490600052602060002090601f016020900481019282601f10620000e957805160ff19168380011785556200011a565b828001600101855582156200011a579182015b8281111562000119578251825591602001919060010190620000fc565b5b5090506200012991906200012d565b5090565b6200015291905b808211156200014e57600081600090555060010162000134565b5090565b90565b611fb480620001656000396000f3fe608060405234801561001057600080fd5b506004361061004c5760003560e01c806324f2beef146100515780632c8b392614610081578063e4ddc863146100b1578063fa16b9b6146100e1575b600080fd5b61006b60048036036100669190810190611a24565b610111565b6040516100789190611d6d565b60405180910390f35b61009b600480360361009691908101906119e3565b610342565b6040516100a89190611d88565b60405180910390f35b6100cb60048036036100c69190810190611a24565b610a88565b6040516100d89190611d6d565b60405180910390f35b6100fb60048036036100f691908101906119e3565b6113ef565b6040516101089190611d6d565b60405180910390f35b600061011c836113ef565b1561012657600080fd5b816002846040516101379190611d56565b90815260200160405180910390206000820151816000019080519060200190610161929190611427565b50602082015181600101908051906020019061017e929190611427565b50604082015181600201908051906020019061019b929190611427565b5060608201518160030190805190602001906101b8929190611427565b5060808201518160040190805190602001906101d5929190611427565b5060a08201518160050190805190602001906101f2929190611427565b5060c082015181600601908051906020019061020f929190611427565b5060e08201518160070155610100820151816008019080519060200190610237929190611427565b50610120820151816009019080519060200190610255929190611427565b5061014082015181600a0190805190602001906102739291906114a7565b5061016082015181600b0160006101000a81548160ff021916908360ff16021790555061018082015181600c01556101a082015181600d01556101c082015181600e01556101e082015181600f0160006101000a81548160ff021916908315150217905550905050336003846040516102ec9190611d56565b908152602001604051809103902060006101000a81548173ffffffffffffffffffffffffffffffffffffffff021916908373ffffffffffffffffffffffffffffffffffffffff1602179055506001905092915050565b61034a611507565b610353826113ef565b61035c57600080fd5b60028260405161036c9190611d56565b908152602001604051809103902060405180610200016040529081600082018054600181600116156101000203166002900480601f01602080910402602001604051908101604052809291908181526020018280546001816001161561010002031660029004801561041f5780601f106103f45761010080835404028352916020019161041f565b820191906000526020600020905b81548152906001019060200180831161040257829003601f168201915b50505050508152602001600182018054600181600116156101000203166002900480601f0160208091040260200160405190810160405280929190818152602001828054600181600116156101000203166002900480156104c15780601f10610496576101008083540402835291602001916104c1565b820191906000526020600020905b8154815290600101906020018083116104a457829003601f168201915b50505050508152602001600282018054600181600116156101000203166002900480601f0160208091040260200160405190810160405280929190818152602001828054600181600116156101000203166002900480156105635780601f1061053857610100808354040283529160200191610563565b820191906000526020600020905b81548152906001019060200180831161054657829003601f168201915b50505050508152602001600382018054600181600116156101000203166002900480601f0160208091040260200160405190810160405280929190818152602001828054600181600116156101000203166002900480156106055780601f106105da57610100808354040283529160200191610605565b820191906000526020600020905b8154815290600101906020018083116105e857829003601f168201915b50505050508152602001600482018054600181600116156101000203166002900480601f0160208091040260200160405190810160405280929190818152602001828054600181600116156101000203166002900480156106a75780601f1061067c576101008083540402835291602001916106a7565b820191906000526020600020905b81548152906001019060200180831161068a57829003601f168201915b50505050508152602001600582018054600181600116156101000203166002900480601f0160208091040260200160405190810160405280929190818152602001828054600181600116156101000203166002900480156107495780601f1061071e57610100808354040283529160200191610749565b820191906000526020600020905b81548152906001019060200180831161072c57829003601f168201915b50505050508152602001600682018054600181600116156101000203166002900480601f0160208091040260200160405190810160405280929190818152602001828054600181600116156101000203166002900480156107eb5780601f106107c0576101008083540402835291602001916107eb565b820191906000526020600020905b8154815290600101906020018083116107ce57829003601f168201915b5050505050815260200160078201548152602001600882018054600181600116156101000203166002900480601f0160208091040260200160405190810160405280929190818152602001828054600181600116156101000203166002900480156108975780601f1061086c57610100808354040283529160200191610897565b820191906000526020600020905b81548152906001019060200180831161087a57829003601f168201915b50505050508152602001600982018054600181600116156101000203166002900480601f0160208091040260200160405190810160405280929190818152602001828054600181600116156101000203166002900480156109395780601f1061090e57610100808354040283529160200191610939565b820191906000526020600020905b81548152906001019060200180831161091c57829003601f168201915b50505050508152602001600a8201805480602002602001604051908101604052809291908181526020016000905b82821015610a23578382906000526020600020018054600181600116156101000203166002900480601f016020809104026020016040519081016040528092919081815260200182805460018160011615610100020316600290048015610a0f5780601f106109e457610100808354040283529160200191610a0f565b820191906000526020600020905b8154815290600101906020018083116109f257829003601f168201915b505050505081526020019060010190610967565b505050508152602001600b820160009054906101000a900460ff1660ff1660ff168152602001600c8201548152602001600d8201548152602001600e8201548152602001600f820160009054906101000a900460ff1615151515815250509050919050565b6000600383604051610a9a9190611d56565b908152602001604051809103902060009054906101000a900473ffffffffffffffffffffffffffffffffffffffff1673ffffffffffffffffffffffffffffffffffffffff163373ffffffffffffffffffffffffffffffffffffffff1614610b0057600080fd5b610b08611507565b600284604051610b189190611d56565b908152602001604051809103902060405180610200016040529081600082018054600181600116156101000203166002900480601f016020809104026020016040519081016040528092919081815260200182805460018160011615610100020316600290048015610bcb5780601f10610ba057610100808354040283529160200191610bcb565b820191906000526020600020905b815481529060010190602001808311610bae57829003601f168201915b50505050508152602001600182018054600181600116156101000203166002900480601f016020809104026020016040519081016040528092919081815260200182805460018160011615610100020316600290048015610c6d5780601f10610c4257610100808354040283529160200191610c6d565b820191906000526020600020905b815481529060010190602001808311610c5057829003601f168201915b50505050508152602001600282018054600181600116156101000203166002900480601f016020809104026020016040519081016040528092919081815260200182805460018160011615610100020316600290048015610d0f5780601f10610ce457610100808354040283529160200191610d0f565b820191906000526020600020905b815481529060010190602001808311610cf257829003601f168201915b50505050508152602001600382018054600181600116156101000203166002900480601f016020809104026020016040519081016040528092919081815260200182805460018160011615610100020316600290048015610db15780601f10610d8657610100808354040283529160200191610db1565b820191906000526020600020905b815481529060010190602001808311610d9457829003601f168201915b50505050508152602001600482018054600181600116156101000203166002900480601f016020809104026020016040519081016040528092919081815260200182805460018160011615610100020316600290048015610e535780601f10610e2857610100808354040283529160200191610e53565b820191906000526020600020905b815481529060010190602001808311610e3657829003601f168201915b50505050508152602001600582018054600181600116156101000203166002900480601f016020809104026020016040519081016040528092919081815260200182805460018160011615610100020316600290048015610ef55780601f10610eca57610100808354040283529160200191610ef5565b820191906000526020600020905b815481529060010190602001808311610ed857829003601f168201915b50505050508152602001600682018054600181600116156101000203166002900480601f016020809104026020016040519081016040528092919081815260200182805460018160011615610100020316600290048015610f975780601f10610f6c57610100808354040283529160200191610f97565b820191906000526020600020905b815481529060010190602001808311610f7a57829003601f168201915b5050505050815260200160078201548152602001600882018054600181600116156101000203166002900480601f0160208091040260200160405190810160405280929190818152602001828054600181600116156101000203166002900480156110435780601f1061101857610100808354040283529160200191611043565b820191906000526020600020905b81548152906001019060200180831161102657829003601f168201915b50505050508152602001600982018054600181600116156101000203166002900480601f0160208091040260200160405190810160405280929190818152602001828054600181600116156101000203166002900480156110e55780601f106110ba576101008083540402835291602001916110e5565b820191906000526020600020905b8154815290600101906020018083116110c857829003601f168201915b50505050508152602001600a8201805480602002602001604051908101604052809291908181526020016000905b828210156111cf578382906000526020600020018054600181600116156101000203166002900480601f0160208091040260200160405190810160405280929190818152602001828054600181600116156101000203166002900480156111bb5780601f10611190576101008083540402835291602001916111bb565b820191906000526020600020905b81548152906001019060200180831161119e57829003601f168201915b505050505081526020019060010190611113565b505050508152602001600b820160009054906101000a900460ff1660ff1660ff168152602001600c8201548152602001600d8201548152602001600e8201548152602001600f820160009054906101000a900460ff1615151515815250509050826002856040516112409190611d56565b9081526020016040518091039020600082015181600001908051906020019061126a929190611427565b506020820151816001019080519060200190611287929190611427565b5060408201518160020190805190602001906112a4929190611427565b5060608201518160030190805190602001906112c1929190611427565b5060808201518160040190805190602001906112de929190611427565b5060a08201518160050190805190602001906112fb929190611427565b5060c0820151816006019080519060200190611318929190611427565b5060e08201518160070155610100820151816008019080519060200190611340929190611427565b5061012082015181600901908051906020019061135e929190611427565b5061014082015181600a01908051906020019061137c9291906114a7565b5061016082015181600b0160006101000a81548160ff021916908360ff16021790555061018082015181600c01556101a082015181600d01556101c082015181600e01556101e082015181600f0160006101000a81548160ff021916908315150217905550905050600191505092915050565b60006002826040516114019190611d56565b9081526020016040518091039020600f0160009054906101000a900460ff169050919050565b828054600181600116156101000203166002900490600052602060002090601f016020900481019282601f1061146857805160ff1916838001178555611496565b82800160010185558215611496579182015b8281111561149557825182559160200191906001019061147a565b5b5090506114a39190611589565b5090565b8280548282559060005260206000209081019282156114f6579160200282015b828111156114f55782518290805190602001906114e5929190611427565b50916020019190600101906114c7565b5b50905061150391906115ae565b5090565b6040518061020001604052806060815260200160608152602001606081526020016060815260200160608152602001606081526020016060815260200160008152602001606081526020016060815260200160608152602001600060ff1681526020016000815260200160008152602001600081526020016000151581525090565b6115ab91905b808211156115a757600081600090555060010161158f565b5090565b90565b6115d791905b808211156115d357600081816115ca91906115da565b506001016115b4565b5090565b90565b50805460018160011615610100020316600290046000825580601f10611600575061161f565b601f01602090049060005260206000209081019061161e9190611589565b5b50565b600082601f83011261163357600080fd5b813561164661164182611dd7565b611daa565b9150818183526020840193506020810190508360005b8381101561168c578135860161167288826116ab565b84526020840193506020830192505060018101905061165c565b5050505092915050565b6000813590506116a581611f35565b92915050565b600082601f8301126116bc57600080fd5b81356116cf6116ca82611dff565b611daa565b915080825260208301602083018583830111156116eb57600080fd5b6116f6838284611ee2565b50505092915050565b600082601f83011261171057600080fd5b813561172361171e82611e2b565b611daa565b9150808252602083016020830185838301111561173f57600080fd5b61174a838284611ee2565b50505092915050565b6000610200828403121561176657600080fd5b611771610200611daa565b9050600082013567ffffffffffffffff81111561178d57600080fd5b611799848285016116ab565b600083015250602082013567ffffffffffffffff8111156117b957600080fd5b6117c5848285016116ab565b602083015250604082013567ffffffffffffffff8111156117e557600080fd5b6117f1848285016116ab565b604083015250606082013567ffffffffffffffff81111561181157600080fd5b61181d848285016116ab565b606083015250608082013567ffffffffffffffff81111561183d57600080fd5b611849848285016116ab565b60808301525060a082013567ffffffffffffffff81111561186957600080fd5b611875848285016116ab565b60a08301525060c082013567ffffffffffffffff81111561189557600080fd5b6118a1848285016116ab565b60c08301525060e06118b5848285016119b9565b60e08301525061010082013567ffffffffffffffff8111156118d657600080fd5b6118e2848285016116ab565b6101008301525061012082013567ffffffffffffffff81111561190457600080fd5b611910848285016116ab565b6101208301525061014082013567ffffffffffffffff81111561193257600080fd5b61193e84828501611622565b61014083015250610160611954848285016119ce565b6101608301525061018061196a848285016119b9565b610180830152506101a0611980848285016119b9565b6101a0830152506101c0611996848285016119b9565b6101c0830152506101e06119ac84828501611696565b6101e08301525092915050565b6000813590506119c881611f4c565b92915050565b6000813590506119dd81611f63565b92915050565b6000602082840312156119f557600080fd5b600082013567ffffffffffffffff811115611a0f57600080fd5b611a1b848285016116ff565b91505092915050565b60008060408385031215611a3757600080fd5b600083013567ffffffffffffffff811115611a5157600080fd5b611a5d858286016116ff565b925050602083013567ffffffffffffffff811115611a7a57600080fd5b611a8685828601611753565b9150509250929050565b6000611a9c8383611b68565b905092915050565b6000611aaf82611e64565b611ab98185611e92565b935083602082028501611acb85611e57565b8060005b85811015611b075784840389528151611ae88582611a90565b9450611af383611e85565b925060208a01995050600181019050611acf565b50829750879550505050505092915050565b611b2281611ebf565b82525050565b611b3181611ebf565b82525050565b6000611b4282611e7a565b611b4c8185611eb4565b9350611b5c818560208601611ef1565b80840191505092915050565b6000611b7382611e6f565b611b7d8185611ea3565b9350611b8d818560208601611ef1565b611b9681611f24565b840191505092915050565b6000610200830160008301518482036000860152611bbf8282611b68565b91505060208301518482036020860152611bd98282611b68565b91505060408301518482036040860152611bf38282611b68565b91505060608301518482036060860152611c0d8282611b68565b91505060808301518482036080860152611c278282611b68565b91505060a083015184820360a0860152611c418282611b68565b91505060c083015184820360c0860152611c5b8282611b68565b91505060e0830151611c7060e0860182611d38565b50610100830151848203610100860152611c8a8282611b68565b915050610120830151848203610120860152611ca68282611b68565b915050610140830151848203610140860152611cc28282611aa4565b915050610160830151611cd9610160860182611d47565b50610180830151611cee610180860182611d38565b506101a0830151611d036101a0860182611d38565b506101c0830151611d186101c0860182611d38565b506101e0830151611d2d6101e0860182611b19565b508091505092915050565b611d4181611ecb565b82525050565b611d5081611ed5565b82525050565b6000611d628284611b37565b915081905092915050565b6000602082019050611d826000830184611b28565b92915050565b60006020820190508181036000830152611da28184611ba1565b905092915050565b6000604051905081810181811067ffffffffffffffff82111715611dcd57600080fd5b8060405250919050565b600067ffffffffffffffff821115611dee57600080fd5b602082029050602081019050919050565b600067ffffffffffffffff821115611e1657600080fd5b601f19601f8301169050602081019050919050565b600067ffffffffffffffff821115611e4257600080fd5b601f19601f8301169050602081019050919050565b6000602082019050919050565b600081519050919050565b600081519050919050565b600081519050919050565b6000602082019050919050565b600082825260208201905092915050565b600082825260208201905092915050565b600081905092915050565b60008115159050919050565b6000819050919050565b600060ff82169050919050565b82818337600083830152505050565b60005b83811015611f0f578082015181840152602081019050611ef4565b83811115611f1e576000848401525b50505050565b6000601f19601f8301169050919050565b611f3e81611ebf565b8114611f4957600080fd5b50565b611f5581611ecb565b8114611f6057600080fd5b50565b611f6c81611ed5565b8114611f7757600080fd5b5056fea265627a7a72305820ca10900681e17207805ac7120c35a0b65ba379bbbb632d0537b8c4dee71b587e6c6578706572696d656e74616cf50037",
  "source": "pragma solidity >=0.4.0 <0.6.0;\npragma experimental ABIEncoderV2;\n\ncontract Piper {\n  address owner;\n  string name;\n\n  struct Extension {\n    string hash;\n    string developer;\n    string developerETH;\n    string name;\n    string overview;\n    string category;\n    string version;\n    uint extensionSize;\n    string iconURL;\n    string extensionCrxURL;\n    string[] previews;\n    uint8 rating;\n    uint reviews;\n    uint downloads;\n    uint updated;\n    bool isExtension;\n  }\n  mapping(string => Extension) extensions;\n  mapping(string => address) owners;\n\n  constructor() public {\n    owner = msg.sender;\n    name = \"Piper\";\n  }\n\n  function isExtension(string memory _hash) public view returns(bool) {\n    return extensions[_hash].isExtension;\n  }\n\n  function getExtensionByHash(string memory _hash) public view returns(Extension memory) {\n    // Make sure the extension exists.\n    require(isExtension(_hash));\n\n    return extensions[_hash];\n  }\n\n  function createNewExtension(string memory _hash, Extension memory _extension) public returns(bool) {\n    // Make sure that the extension doesnt exist.\n    require(!isExtension(_hash));\n\n    // Create new extension.\n    extensions[_hash] = _extension;\n    owners[_hash] = msg.sender;\n\n    return true;\n  }\n\n  function updateExtensionByHash(string memory _hash, Extension memory _extension) public returns(bool) {\n    // Check if extension owner is the one trying to edit it.\n    require(msg.sender == owners[_hash]);\n\n    Extension memory extension = extensions[_hash];\n\n    // Update the extension.\n    extensions[_hash] = _extension;\n\n    return true;\n  }\n}\n",
  "sourcePath": "/home/robin/piper/contracts/Piper.sol",
  "compiler": {
    "name": "solc",
    "version": "0.5.8+commit.23d335f2.Emscripten.clang"
  },
  "schemaVersion": "3.0.11",
  "updatedAt": "2019-06-30T14:48:21.202Z",
  "devdoc": {
    "methods": {}
  },
  "userdoc": {
    "methods": {}
  }
}