{
  "contractName": "Piper",
  "abi": [
    {
      "inputs": [],
      "payable": false,
      "stateMutability": "nonpayable",
      "type": "constructor"
    },
    {
      "constant": true,
      "inputs": [
        {
          "name": "hash",
          "type": "string"
        }
      ],
      "name": "getExtensionByHash",
      "outputs": [
        {
          "components": [
            {
              "name": "owner",
              "type": "address"
            },
            {
              "name": "hash",
              "type": "string"
            },
            {
              "name": "developer",
              "type": "string"
            },
            {
              "name": "developerETH",
              "type": "address"
            },
            {
              "name": "name",
              "type": "string"
            },
            {
              "name": "overview",
              "type": "string"
            },
            {
              "name": "category",
              "type": "string"
            },
            {
              "name": "version",
              "type": "string"
            },
            {
              "name": "extensionSize",
              "type": "uint256"
            },
            {
              "name": "iconURL",
              "type": "string"
            },
            {
              "name": "extensionCrxURL",
              "type": "string"
            },
            {
              "name": "rating",
              "type": "uint8"
            },
            {
              "name": "reviews",
              "type": "uint256"
            },
            {
              "name": "downloads",
              "type": "uint256"
            },
            {
              "name": "updated",
              "type": "uint256"
            }
          ],
          "name": "",
          "type": "tuple"
        }
      ],
      "payable": false,
      "stateMutability": "view",
      "type": "function"
    },
    {
      "constant": false,
      "inputs": [
        {
          "name": "hash",
          "type": "string"
        },
        {
          "components": [
            {
              "name": "owner",
              "type": "address"
            },
            {
              "name": "hash",
              "type": "string"
            },
            {
              "name": "developer",
              "type": "string"
            },
            {
              "name": "developerETH",
              "type": "address"
            },
            {
              "name": "name",
              "type": "string"
            },
            {
              "name": "overview",
              "type": "string"
            },
            {
              "name": "category",
              "type": "string"
            },
            {
              "name": "version",
              "type": "string"
            },
            {
              "name": "extensionSize",
              "type": "uint256"
            },
            {
              "name": "iconURL",
              "type": "string"
            },
            {
              "name": "extensionCrxURL",
              "type": "string"
            },
            {
              "name": "rating",
              "type": "uint8"
            },
            {
              "name": "reviews",
              "type": "uint256"
            },
            {
              "name": "downloads",
              "type": "uint256"
            },
            {
              "name": "updated",
              "type": "uint256"
            }
          ],
          "name": "extension",
          "type": "tuple"
        }
      ],
      "name": "createNewExtension",
      "outputs": [
        {
          "name": "",
          "type": "bool"
        }
      ],
      "payable": false,
      "stateMutability": "nonpayable",
      "type": "function"
    },
    {
      "constant": false,
      "inputs": [
        {
          "name": "hash",
          "type": "string"
        },
        {
          "components": [
            {
              "name": "owner",
              "type": "address"
            },
            {
              "name": "hash",
              "type": "string"
            },
            {
              "name": "developer",
              "type": "string"
            },
            {
              "name": "developerETH",
              "type": "address"
            },
            {
              "name": "name",
              "type": "string"
            },
            {
              "name": "overview",
              "type": "string"
            },
            {
              "name": "category",
              "type": "string"
            },
            {
              "name": "version",
              "type": "string"
            },
            {
              "name": "extensionSize",
              "type": "uint256"
            },
            {
              "name": "iconURL",
              "type": "string"
            },
            {
              "name": "extensionCrxURL",
              "type": "string"
            },
            {
              "name": "rating",
              "type": "uint8"
            },
            {
              "name": "reviews",
              "type": "uint256"
            },
            {
              "name": "downloads",
              "type": "uint256"
            },
            {
              "name": "updated",
              "type": "uint256"
            }
          ],
          "name": "extension",
          "type": "tuple"
        }
      ],
      "name": "updateExtensionByHash",
      "outputs": [
        {
          "name": "",
          "type": "bool"
        }
      ],
      "payable": false,
      "stateMutability": "nonpayable",
      "type": "function"
    }
  ],
  "bytecode": "0x60806040523480156200001157600080fd5b50336000806101000a81548173ffffffffffffffffffffffffffffffffffffffff021916908373ffffffffffffffffffffffffffffffffffffffff1602179055506040518060400160405280600581526020017f5069706572000000000000000000000000000000000000000000000000000000815250600190805190602001906200009f929190620000a6565b5062000155565b828054600181600116156101000203166002900490600052602060002090601f016020900481019282601f10620000e957805160ff19168380011785556200011a565b828001600101855582156200011a579182015b8281111562000119578251825591602001919060010190620000fc565b5b5090506200012991906200012d565b5090565b6200015291905b808211156200014e57600081600090555060010162000134565b5090565b90565b61160e80620001656000396000f3fe608060405234801561001057600080fd5b50600436106100415760003560e01c80630d16a2ae146100465780632c8b39261461007657806367e7e6fa146100a6575b600080fd5b610060600480360361005b9190810190611094565b6100d6565b60405161006d91906113d6565b60405180910390f35b610090600480360361008b9190810190611053565b610313565b60405161009d91906113f1565b60405180910390f35b6100c060048036036100bb9190810190611094565b610995565b6040516100cd91906113d6565b60405180910390f35b600082805190602001206002846040516100f091906113bf565b908152602001604051809103902060010160405161010e91906113a8565b6040518091039020141561012157600080fd5b8160028460405161013291906113bf565b908152602001604051809103902060008201518160000160006101000a81548173ffffffffffffffffffffffffffffffffffffffff021916908373ffffffffffffffffffffffffffffffffffffffff16021790555060208201518160010190805190602001906101a3929190610c02565b5060408201518160020190805190602001906101c0929190610c02565b5060608201518160030160006101000a81548173ffffffffffffffffffffffffffffffffffffffff021916908373ffffffffffffffffffffffffffffffffffffffff1602179055506080820151816004019080519060200190610224929190610c02565b5060a0820151816005019080519060200190610241929190610c02565b5060c082015181600601908051906020019061025e929190610c02565b5060e082015181600701908051906020019061027b929190610c02565b5061010082015181600801556101208201518160090190805190602001906102a4929190610c02565b5061014082015181600a0190805190602001906102c2929190610c02565b5061016082015181600b0160006101000a81548160ff021916908360ff16021790555061018082015181600c01556101a082015181600d01556101c082015181600e01559050506001905092915050565b61031b610c82565b818051906020012060028360405161033391906113bf565b908152602001604051809103902060010160405161035191906113a8565b60405180910390201461036357600080fd5b60028260405161037391906113bf565b9081526020016040518091039020604051806101e00160405290816000820160009054906101000a900473ffffffffffffffffffffffffffffffffffffffff1673ffffffffffffffffffffffffffffffffffffffff1673ffffffffffffffffffffffffffffffffffffffff168152602001600182018054600181600116156101000203166002900480601f01602080910402602001604051908101604052809291908181526020018280546001816001161561010002031660029004801561047c5780601f106104515761010080835404028352916020019161047c565b820191906000526020600020905b81548152906001019060200180831161045f57829003601f168201915b50505050508152602001600282018054600181600116156101000203166002900480601f01602080910402602001604051908101604052809291908181526020018280546001816001161561010002031660029004801561051e5780601f106104f35761010080835404028352916020019161051e565b820191906000526020600020905b81548152906001019060200180831161050157829003601f168201915b505050505081526020016003820160009054906101000a900473ffffffffffffffffffffffffffffffffffffffff1673ffffffffffffffffffffffffffffffffffffffff1673ffffffffffffffffffffffffffffffffffffffff168152602001600482018054600181600116156101000203166002900480601f0160208091040260200160405190810160405280929190818152602001828054600181600116156101000203166002900480156106165780601f106105eb57610100808354040283529160200191610616565b820191906000526020600020905b8154815290600101906020018083116105f957829003601f168201915b50505050508152602001600582018054600181600116156101000203166002900480601f0160208091040260200160405190810160405280929190818152602001828054600181600116156101000203166002900480156106b85780601f1061068d576101008083540402835291602001916106b8565b820191906000526020600020905b81548152906001019060200180831161069b57829003601f168201915b50505050508152602001600682018054600181600116156101000203166002900480601f01602080910402602001604051908101604052809291908181526020018280546001816001161561010002031660029004801561075a5780601f1061072f5761010080835404028352916020019161075a565b820191906000526020600020905b81548152906001019060200180831161073d57829003601f168201915b50505050508152602001600782018054600181600116156101000203166002900480601f0160208091040260200160405190810160405280929190818152602001828054600181600116156101000203166002900480156107fc5780601f106107d1576101008083540402835291602001916107fc565b820191906000526020600020905b8154815290600101906020018083116107df57829003601f168201915b5050505050815260200160088201548152602001600982018054600181600116156101000203166002900480601f0160208091040260200160405190810160405280929190818152602001828054600181600116156101000203166002900480156108a85780601f1061087d576101008083540402835291602001916108a8565b820191906000526020600020905b81548152906001019060200180831161088b57829003601f168201915b50505050508152602001600a82018054600181600116156101000203166002900480601f01602080910402602001604051908101604052809291908181526020018280546001816001161561010002031660029004801561094a5780601f1061091f5761010080835404028352916020019161094a565b820191906000526020600020905b81548152906001019060200180831161092d57829003601f168201915b50505050508152602001600b820160009054906101000a900460ff1660ff1660ff168152602001600c8201548152602001600d8201548152602001600e820154815250509050919050565b60006002836040516109a791906113bf565b908152602001604051809103902060000160009054906101000a900473ffffffffffffffffffffffffffffffffffffffff1673ffffffffffffffffffffffffffffffffffffffff163373ffffffffffffffffffffffffffffffffffffffff1614610a1057600080fd5b81600284604051610a2191906113bf565b908152602001604051809103902060008201518160000160006101000a81548173ffffffffffffffffffffffffffffffffffffffff021916908373ffffffffffffffffffffffffffffffffffffffff1602179055506020820151816001019080519060200190610a92929190610c02565b506040820151816002019080519060200190610aaf929190610c02565b5060608201518160030160006101000a81548173ffffffffffffffffffffffffffffffffffffffff021916908373ffffffffffffffffffffffffffffffffffffffff1602179055506080820151816004019080519060200190610b13929190610c02565b5060a0820151816005019080519060200190610b30929190610c02565b5060c0820151816006019080519060200190610b4d929190610c02565b5060e0820151816007019080519060200190610b6a929190610c02565b506101008201518160080155610120820151816009019080519060200190610b93929190610c02565b5061014082015181600a019080519060200190610bb1929190610c02565b5061016082015181600b0160006101000a81548160ff021916908360ff16021790555061018082015181600c01556101a082015181600d01556101c082015181600e01559050506001905092915050565b828054600181600116156101000203166002900490600052602060002090601f016020900481019282601f10610c4357805160ff1916838001178555610c71565b82800160010185558215610c71579182015b82811115610c70578251825591602001919060010190610c55565b5b509050610c7e9190610d27565b5090565b604051806101e00160405280600073ffffffffffffffffffffffffffffffffffffffff1681526020016060815260200160608152602001600073ffffffffffffffffffffffffffffffffffffffff16815260200160608152602001606081526020016060815260200160608152602001600081526020016060815260200160608152602001600060ff1681526020016000815260200160008152602001600081525090565b610d4991905b80821115610d45576000816000905550600101610d2d565b5090565b90565b600081359050610d5b8161158f565b92915050565b600082601f830112610d7257600080fd5b8135610d85610d8082611440565b611413565b91508082526020830160208301858383011115610da157600080fd5b610dac83828461153c565b50505092915050565b600082601f830112610dc657600080fd5b8135610dd9610dd48261146c565b611413565b91508082526020830160208301858383011115610df557600080fd5b610e0083828461153c565b50505092915050565b60006101e08284031215610e1c57600080fd5b610e276101e0611413565b90506000610e3784828501610d4c565b600083015250602082013567ffffffffffffffff811115610e5757600080fd5b610e6384828501610d61565b602083015250604082013567ffffffffffffffff811115610e8357600080fd5b610e8f84828501610d61565b6040830152506060610ea384828501610d4c565b606083015250608082013567ffffffffffffffff811115610ec357600080fd5b610ecf84828501610d61565b60808301525060a082013567ffffffffffffffff811115610eef57600080fd5b610efb84828501610d61565b60a08301525060c082013567ffffffffffffffff811115610f1b57600080fd5b610f2784828501610d61565b60c08301525060e082013567ffffffffffffffff811115610f4757600080fd5b610f5384828501610d61565b60e083015250610100610f6884828501611029565b6101008301525061012082013567ffffffffffffffff811115610f8a57600080fd5b610f9684828501610d61565b6101208301525061014082013567ffffffffffffffff811115610fb857600080fd5b610fc484828501610d61565b61014083015250610160610fda8482850161103e565b61016083015250610180610ff084828501611029565b610180830152506101a061100684828501611029565b6101a0830152506101c061101c84828501611029565b6101c08301525092915050565b600081359050611038816115a6565b92915050565b60008135905061104d816115bd565b92915050565b60006020828403121561106557600080fd5b600082013567ffffffffffffffff81111561107f57600080fd5b61108b84828501610db5565b91505092915050565b600080604083850312156110a757600080fd5b600083013567ffffffffffffffff8111156110c157600080fd5b6110cd85828601610db5565b925050602083013567ffffffffffffffff8111156110ea57600080fd5b6110f685828601610e09565b9150509250929050565b611109816114e7565b82525050565b611118816114f9565b82525050565b60008154600181166000811461113b5760018114611160576111a4565b607f600283041661114c81876114c0565b955060ff19831686528086019350506111a4565b6002820461116e81876114c0565b955061117985611498565b60005b8281101561119b5781548189015260018201915060208101905061117c565b82880195505050505b505092915050565b60006111b7826114b5565b6111c181856114dc565b93506111d181856020860161154b565b80840191505092915050565b60006111e8826114aa565b6111f281856114cb565b935061120281856020860161154b565b61120b8161157e565b840191505092915050565b60006101e08301600083015161122f6000860182611100565b506020830151848203602086015261124782826111dd565b9150506040830151848203604086015261126182826111dd565b91505060608301516112766060860182611100565b506080830151848203608086015261128e82826111dd565b91505060a083015184820360a08601526112a882826111dd565b91505060c083015184820360c08601526112c282826111dd565b91505060e083015184820360e08601526112dc82826111dd565b9150506101008301516112f361010086018261138a565b5061012083015184820361012086015261130d82826111dd565b91505061014083015184820361014086015261132982826111dd565b915050610160830151611340610160860182611399565b5061018083015161135561018086018261138a565b506101a083015161136a6101a086018261138a565b506101c083015161137f6101c086018261138a565b508091505092915050565b61139381611525565b82525050565b6113a28161152f565b82525050565b60006113b4828461111e565b915081905092915050565b60006113cb82846111ac565b915081905092915050565b60006020820190506113eb600083018461110f565b92915050565b6000602082019050818103600083015261140b8184611216565b905092915050565b6000604051905081810181811067ffffffffffffffff8211171561143657600080fd5b8060405250919050565b600067ffffffffffffffff82111561145757600080fd5b601f19601f8301169050602081019050919050565b600067ffffffffffffffff82111561148357600080fd5b601f19601f8301169050602081019050919050565b60008160005260206000209050919050565b600081519050919050565b600081519050919050565b600081905092915050565b600082825260208201905092915050565b600081905092915050565b60006114f282611505565b9050919050565b60008115159050919050565b600073ffffffffffffffffffffffffffffffffffffffff82169050919050565b6000819050919050565b600060ff82169050919050565b82818337600083830152505050565b60005b8381101561156957808201518184015260208101905061154e565b83811115611578576000848401525b50505050565b6000601f19601f8301169050919050565b611598816114e7565b81146115a357600080fd5b50565b6115af81611525565b81146115ba57600080fd5b50565b6115c68161152f565b81146115d157600080fd5b5056fea265627a7a72305820bfa570464d8680cee16dfbaa75db769b969d24b1b7c6170b3773ef82c44097336c6578706572696d656e74616cf50037",
  "source": "pragma solidity ^0.5.0;\npragma experimental ABIEncoderV2;\n\ncontract Piper {\n  address owner;\n  string name;\n\n  struct Extension {\n    address owner;\n    string hash;\n    string developer;\n    address developerETH;\n    string name;\n    string overview;\n    string category;\n    string version;\n    uint extensionSize;\n    string iconURL;\n    string extensionCrxURL;\n    uint8 rating;\n    uint reviews;\n    uint downloads;\n    uint updated;\n  }\n  mapping(string => Extension) extensions;\n\n  constructor() public {\n    owner = msg.sender;\n    name = \"Piper\";\n  }\n\n  function getExtensionByHash(string memory hash) public view returns(Extension memory) {\n    // Make sure the extension exists.\n    require(keccak256(bytes(extensions[hash].hash)) == keccak256(bytes(hash)));\n\n    return extensions[hash];\n  }\n\n  function createNewExtension(string memory hash, Extension memory extension) public returns(bool) {\n    // Make sure that the extension doesnt exist.\n    require(keccak256(bytes(extensions[hash].hash)) != keccak256(bytes(hash)));\n\n    // Create new extension.\n    extensions[hash] = extension;\n\n    return true;\n  }\n\n  function updateExtensionByHash(string memory hash, Extension memory extension) public returns(bool) {\n    // Check if extension owner is the one trying to edit it.\n    require(msg.sender == extensions[hash].owner);\n\n    // Update the extension.\n    extensions[hash] = extension;\n\n    return true;\n  }\n}\n",
  "sourcePath": "/home/robin/piper/contracts/Piper.sol",
  "compiler": {
    "name": "solc",
    "version": "0.5.8+commit.23d335f2.Emscripten.clang"
  },
  "schemaVersion": "3.0.11",
  "updatedAt": "2019-06-29T04:21:05.688Z",
  "devdoc": {
    "methods": {}
  },
  "userdoc": {
    "methods": {}
  }
}