{
  "contractName": "Piper",
  "abi": [
    {
      "inputs": [],
      "payable": false,
      "stateMutability": "nonpayable",
      "type": "constructor"
    },
    {
      "anonymous": false,
      "inputs": [
        {
          "indexed": false,
          "name": "hash",
          "type": "string"
        },
        {
          "components": [
            {
              "components": [
                {
                  "name": "hash",
                  "type": "string"
                },
                {
                  "name": "developer",
                  "type": "string"
                },
                {
                  "name": "developerETH",
                  "type": "string"
                },
                {
                  "name": "name",
                  "type": "string"
                },
                {
                  "name": "overview",
                  "type": "string"
                },
                {
                  "name": "category",
                  "type": "string"
                },
                {
                  "name": "version",
                  "type": "string"
                },
                {
                  "name": "size",
                  "type": "uint256"
                },
                {
                  "name": "iconURL",
                  "type": "string"
                },
                {
                  "name": "crx",
                  "type": "string"
                },
                {
                  "name": "rating",
                  "type": "uint8"
                },
                {
                  "name": "reviews",
                  "type": "uint256"
                },
                {
                  "name": "downloads",
                  "type": "uint256"
                },
                {
                  "name": "updated",
                  "type": "uint256"
                }
              ],
              "name": "extension",
              "type": "tuple"
            },
            {
              "name": "owner",
              "type": "address"
            }
          ],
          "indexed": false,
          "name": "extension",
          "type": "tuple"
        }
      ],
      "name": "CreateNewExtensionEvent",
      "type": "event"
    },
    {
      "anonymous": false,
      "inputs": [
        {
          "indexed": false,
          "name": "hash",
          "type": "string"
        },
        {
          "components": [
            {
              "components": [
                {
                  "name": "hash",
                  "type": "string"
                },
                {
                  "name": "developer",
                  "type": "string"
                },
                {
                  "name": "developerETH",
                  "type": "string"
                },
                {
                  "name": "name",
                  "type": "string"
                },
                {
                  "name": "overview",
                  "type": "string"
                },
                {
                  "name": "category",
                  "type": "string"
                },
                {
                  "name": "version",
                  "type": "string"
                },
                {
                  "name": "size",
                  "type": "uint256"
                },
                {
                  "name": "iconURL",
                  "type": "string"
                },
                {
                  "name": "crx",
                  "type": "string"
                },
                {
                  "name": "rating",
                  "type": "uint8"
                },
                {
                  "name": "reviews",
                  "type": "uint256"
                },
                {
                  "name": "downloads",
                  "type": "uint256"
                },
                {
                  "name": "updated",
                  "type": "uint256"
                }
              ],
              "name": "extension",
              "type": "tuple"
            },
            {
              "name": "owner",
              "type": "address"
            }
          ],
          "indexed": false,
          "name": "extension",
          "type": "tuple"
        }
      ],
      "name": "UpdateExtensionByHashEvent",
      "type": "event"
    },
    {
      "constant": true,
      "inputs": [
        {
          "name": "_hash",
          "type": "string"
        }
      ],
      "name": "isExtension",
      "outputs": [
        {
          "name": "",
          "type": "bool"
        }
      ],
      "payable": false,
      "stateMutability": "view",
      "type": "function"
    },
    {
      "constant": true,
      "inputs": [
        {
          "name": "_hash",
          "type": "string"
        }
      ],
      "name": "getExtensionByHash",
      "outputs": [
        {
          "components": [
            {
              "components": [
                {
                  "name": "hash",
                  "type": "string"
                },
                {
                  "name": "developer",
                  "type": "string"
                },
                {
                  "name": "developerETH",
                  "type": "string"
                },
                {
                  "name": "name",
                  "type": "string"
                },
                {
                  "name": "overview",
                  "type": "string"
                },
                {
                  "name": "category",
                  "type": "string"
                },
                {
                  "name": "version",
                  "type": "string"
                },
                {
                  "name": "size",
                  "type": "uint256"
                },
                {
                  "name": "iconURL",
                  "type": "string"
                },
                {
                  "name": "crx",
                  "type": "string"
                },
                {
                  "name": "rating",
                  "type": "uint8"
                },
                {
                  "name": "reviews",
                  "type": "uint256"
                },
                {
                  "name": "downloads",
                  "type": "uint256"
                },
                {
                  "name": "updated",
                  "type": "uint256"
                }
              ],
              "name": "extension",
              "type": "tuple"
            },
            {
              "name": "owner",
              "type": "address"
            }
          ],
          "name": "",
          "type": "tuple"
        }
      ],
      "payable": false,
      "stateMutability": "view",
      "type": "function"
    },
    {
      "constant": false,
      "inputs": [
        {
          "name": "_hash",
          "type": "string"
        },
        {
          "components": [
            {
              "name": "hash",
              "type": "string"
            },
            {
              "name": "developer",
              "type": "string"
            },
            {
              "name": "developerETH",
              "type": "string"
            },
            {
              "name": "name",
              "type": "string"
            },
            {
              "name": "overview",
              "type": "string"
            },
            {
              "name": "category",
              "type": "string"
            },
            {
              "name": "version",
              "type": "string"
            },
            {
              "name": "size",
              "type": "uint256"
            },
            {
              "name": "iconURL",
              "type": "string"
            },
            {
              "name": "crx",
              "type": "string"
            },
            {
              "name": "rating",
              "type": "uint8"
            },
            {
              "name": "reviews",
              "type": "uint256"
            },
            {
              "name": "downloads",
              "type": "uint256"
            },
            {
              "name": "updated",
              "type": "uint256"
            }
          ],
          "name": "_extension",
          "type": "tuple"
        }
      ],
      "name": "createNewExtension",
      "outputs": [
        {
          "name": "",
          "type": "bool"
        }
      ],
      "payable": false,
      "stateMutability": "nonpayable",
      "type": "function"
    },
    {
      "constant": false,
      "inputs": [
        {
          "name": "_hash",
          "type": "string"
        },
        {
          "components": [
            {
              "name": "hash",
              "type": "string"
            },
            {
              "name": "developer",
              "type": "string"
            },
            {
              "name": "developerETH",
              "type": "string"
            },
            {
              "name": "name",
              "type": "string"
            },
            {
              "name": "overview",
              "type": "string"
            },
            {
              "name": "category",
              "type": "string"
            },
            {
              "name": "version",
              "type": "string"
            },
            {
              "name": "size",
              "type": "uint256"
            },
            {
              "name": "iconURL",
              "type": "string"
            },
            {
              "name": "crx",
              "type": "string"
            },
            {
              "name": "rating",
              "type": "uint8"
            },
            {
              "name": "reviews",
              "type": "uint256"
            },
            {
              "name": "downloads",
              "type": "uint256"
            },
            {
              "name": "updated",
              "type": "uint256"
            }
          ],
          "name": "_extension",
          "type": "tuple"
        }
      ],
      "name": "updateExtensionByHash",
      "outputs": [
        {
          "name": "",
          "type": "bool"
        }
      ],
      "payable": false,
      "stateMutability": "nonpayable",
      "type": "function"
    }
  ],
  "bytecode": "0x60806040523480156200001157600080fd5b50336000806101000a81548173ffffffffffffffffffffffffffffffffffffffff021916908373ffffffffffffffffffffffffffffffffffffffff1602179055506040518060400160405280600581526020017f5069706572000000000000000000000000000000000000000000000000000000815250600190805190602001906200009f929190620000a6565b5062000155565b828054600181600116156101000203166002900490600052602060002090601f016020900481019282601f10620000e957805160ff19168380011785556200011a565b828001600101855582156200011a579182015b8281111562000119578251825591602001919060010190620000fc565b5b5090506200012991906200012d565b5090565b6200015291905b808211156200014e57600081600090555060010162000134565b5090565b90565b6119c480620001656000396000f3fe608060405234801561001057600080fd5b506004361061004c5760003560e01c80632c8b3926146100515780634dd87a2014610081578063a6c55633146100b1578063fa16b9b6146100e1575b600080fd5b61006b60048036036100669190810190611126565b610111565b6040516100789190611726565b60405180910390f35b61009b60048036036100969190810190611167565b6107bd565b6040516100a891906116d4565b60405180910390f35b6100cb60048036036100c69190810190611167565b610a42565b6040516100d891906116d4565b60405180910390f35b6100fb60048036036100f69190810190611126565b610ca8565b60405161010891906116d4565b60405180910390f35b610119610ce4565b61012282610ca8565b61012b57600080fd5b60028260405161013b91906116bd565b908152602001604051809103902060405180604001604052908160008201604051806101c0016040529081600082018054600181600116156101000203166002900480601f0160208091040260200160405190810160405280929190818152602001828054600181600116156101000203166002900480156101fe5780601f106101d3576101008083540402835291602001916101fe565b820191906000526020600020905b8154815290600101906020018083116101e157829003601f168201915b50505050508152602001600182018054600181600116156101000203166002900480601f0160208091040260200160405190810160405280929190818152602001828054600181600116156101000203166002900480156102a05780601f10610275576101008083540402835291602001916102a0565b820191906000526020600020905b81548152906001019060200180831161028357829003601f168201915b50505050508152602001600282018054600181600116156101000203166002900480601f0160208091040260200160405190810160405280929190818152602001828054600181600116156101000203166002900480156103425780601f1061031757610100808354040283529160200191610342565b820191906000526020600020905b81548152906001019060200180831161032557829003601f168201915b50505050508152602001600382018054600181600116156101000203166002900480601f0160208091040260200160405190810160405280929190818152602001828054600181600116156101000203166002900480156103e45780601f106103b9576101008083540402835291602001916103e4565b820191906000526020600020905b8154815290600101906020018083116103c757829003601f168201915b50505050508152602001600482018054600181600116156101000203166002900480601f0160208091040260200160405190810160405280929190818152602001828054600181600116156101000203166002900480156104865780601f1061045b57610100808354040283529160200191610486565b820191906000526020600020905b81548152906001019060200180831161046957829003601f168201915b50505050508152602001600582018054600181600116156101000203166002900480601f0160208091040260200160405190810160405280929190818152602001828054600181600116156101000203166002900480156105285780601f106104fd57610100808354040283529160200191610528565b820191906000526020600020905b81548152906001019060200180831161050b57829003601f168201915b50505050508152602001600682018054600181600116156101000203166002900480601f0160208091040260200160405190810160405280929190818152602001828054600181600116156101000203166002900480156105ca5780601f1061059f576101008083540402835291602001916105ca565b820191906000526020600020905b8154815290600101906020018083116105ad57829003601f168201915b5050505050815260200160078201548152602001600882018054600181600116156101000203166002900480601f0160208091040260200160405190810160405280929190818152602001828054600181600116156101000203166002900480156106765780601f1061064b57610100808354040283529160200191610676565b820191906000526020600020905b81548152906001019060200180831161065957829003601f168201915b50505050508152602001600982018054600181600116156101000203166002900480601f0160208091040260200160405190810160405280929190818152602001828054600181600116156101000203166002900480156107185780601f106106ed57610100808354040283529160200191610718565b820191906000526020600020905b8154815290600101906020018083116106fb57829003601f168201915b50505050508152602001600a820160009054906101000a900460ff1660ff1660ff168152602001600b8201548152602001600c8201548152602001600d820154815250508152602001600e820160009054906101000a900473ffffffffffffffffffffffffffffffffffffffff1673ffffffffffffffffffffffffffffffffffffffff1673ffffffffffffffffffffffffffffffffffffffff16815250509050919050565b60006107c883610ca8565b156107d257600080fd5b816002846040516107e391906116bd565b90815260200160405180910390206000016000820151816000019080519060200190610810929190610d1b565b50602082015181600101908051906020019061082d929190610d1b565b50604082015181600201908051906020019061084a929190610d1b565b506060820151816003019080519060200190610867929190610d1b565b506080820151816004019080519060200190610884929190610d1b565b5060a08201518160050190805190602001906108a1929190610d1b565b5060c08201518160060190805190602001906108be929190610d1b565b5060e082015181600701556101008201518160080190805190602001906108e6929190610d1b565b50610120820151816009019080519060200190610904929190610d1b565b5061014082015181600a0160006101000a81548160ff021916908360ff16021790555061016082015181600b015561018082015181600c01556101a082015181600d01559050503360028460405161095c91906116bd565b9081526020016040518091039020600e0160006101000a81548173ffffffffffffffffffffffffffffffffffffffff021916908373ffffffffffffffffffffffffffffffffffffffff16021790555060016003846040516109bd91906116bd565b908152602001604051809103902060006101000a81548160ff0219169083151502179055507f7c7e3e67ec55fd6b066e9c661ff0ad8efe1aab24a6ec70af1dcf0ded76221ffb83600285604051610a1491906116bd565b9081526020016040518091039020604051610a309291906116ef565b60405180910390a16001905092915050565b6000610a4d83610ca8565b610a5657600080fd5b600283604051610a6691906116bd565b9081526020016040518091039020600e0160009054906101000a900473ffffffffffffffffffffffffffffffffffffffff1673ffffffffffffffffffffffffffffffffffffffff163373ffffffffffffffffffffffffffffffffffffffff1614610acf57600080fd5b81600284604051610ae091906116bd565b90815260200160405180910390206000016000820151816000019080519060200190610b0d929190610d1b565b506020820151816001019080519060200190610b2a929190610d1b565b506040820151816002019080519060200190610b47929190610d1b565b506060820151816003019080519060200190610b64929190610d1b565b506080820151816004019080519060200190610b81929190610d1b565b5060a0820151816005019080519060200190610b9e929190610d1b565b5060c0820151816006019080519060200190610bbb929190610d1b565b5060e08201518160070155610100820151816008019080519060200190610be3929190610d1b565b50610120820151816009019080519060200190610c01929190610d1b565b5061014082015181600a0160006101000a81548160ff021916908360ff16021790555061016082015181600b015561018082015181600c01556101a082015181600d01559050507f6f8a6b891c8cedf396d52f145877e10376e73ad01aa868f31dd27d254283e02083600285604051610c7a91906116bd565b9081526020016040518091039020604051610c969291906116ef565b60405180910390a16001905092915050565b600060011515600383604051610cbe91906116bd565b908152602001604051809103902060009054906101000a900460ff161515149050919050565b604051806101e00160405280610cf8610d9b565b8152602001600073ffffffffffffffffffffffffffffffffffffffff1681525090565b828054600181600116156101000203166002900490600052602060002090601f016020900481019282601f10610d5c57805160ff1916838001178555610d8a565b82800160010185558215610d8a579182015b82811115610d89578251825591602001919060010190610d6e565b5b509050610d979190610e0d565b5090565b604051806101c0016040528060608152602001606081526020016060815260200160608152602001606081526020016060815260200160608152602001600081526020016060815260200160608152602001600060ff1681526020016000815260200160008152602001600081525090565b610e2f91905b80821115610e2b576000816000905550600101610e13565b5090565b90565b600082601f830112610e4357600080fd5b8135610e56610e5182611775565b611748565b91508082526020830160208301858383011115610e7257600080fd5b610e7d8382846118ae565b50505092915050565b600082601f830112610e9757600080fd5b8135610eaa610ea5826117a1565b611748565b91508082526020830160208301858383011115610ec657600080fd5b610ed18382846118ae565b50505092915050565b60006101c08284031215610eed57600080fd5b610ef86101c0611748565b9050600082013567ffffffffffffffff811115610f1457600080fd5b610f2084828501610e32565b600083015250602082013567ffffffffffffffff811115610f4057600080fd5b610f4c84828501610e32565b602083015250604082013567ffffffffffffffff811115610f6c57600080fd5b610f7884828501610e32565b604083015250606082013567ffffffffffffffff811115610f9857600080fd5b610fa484828501610e32565b606083015250608082013567ffffffffffffffff811115610fc457600080fd5b610fd084828501610e32565b60808301525060a082013567ffffffffffffffff811115610ff057600080fd5b610ffc84828501610e32565b60a08301525060c082013567ffffffffffffffff81111561101c57600080fd5b61102884828501610e32565b60c08301525060e061103c848285016110fc565b60e08301525061010082013567ffffffffffffffff81111561105d57600080fd5b61106984828501610e32565b6101008301525061012082013567ffffffffffffffff81111561108b57600080fd5b61109784828501610e32565b610120830152506101406110ad84828501611111565b610140830152506101606110c3848285016110fc565b610160830152506101806110d9848285016110fc565b610180830152506101a06110ef848285016110fc565b6101a08301525092915050565b60008135905061110b8161195c565b92915050565b60008135905061112081611973565b92915050565b60006020828403121561113857600080fd5b600082013567ffffffffffffffff81111561115257600080fd5b61115e84828501610e86565b91505092915050565b6000806040838503121561117a57600080fd5b600083013567ffffffffffffffff81111561119457600080fd5b6111a085828601610e86565b925050602083013567ffffffffffffffff8111156111bd57600080fd5b6111c985828601610eda565b9150509250929050565b6111dc81611859565b82525050565b6111eb8161186b565b82525050565b60006111fc826117ea565b6112068185611806565b93506112168185602086016118bd565b61121f8161193e565b840191505092915050565b6000611235826117ea565b61123f8185611817565b935061124f8185602086016118bd565b80840191505092915050565b6000611266826117df565b61127081856117f5565b93506112808185602086016118bd565b6112898161193e565b840191505092915050565b6000815460018116600081146112b157600181146112d75761131b565b607f60028304166112c281876117f5565b955060ff19831686526020860193505061131b565b600282046112e581876117f5565b95506112f0856117cd565b60005b82811015611312578154818901526001820191506020810190506112f3565b80880195505050505b505092915050565b6000604083016000830151848203600086015261134082826113a9565b915050602083015161135560208601826111d3565b508091505092915050565b6000604083016000808401858303600087015261137d838261150f565b925050600e8401549050611390816118f0565b61139d60208701826111d3565b50819250505092915050565b60006101c08301600083015184820360008601526113c7828261125b565b915050602083015184820360208601526113e1828261125b565b915050604083015184820360408601526113fb828261125b565b91505060608301518482036060860152611415828261125b565b9150506080830151848203608086015261142f828261125b565b91505060a083015184820360a0860152611449828261125b565b91505060c083015184820360c0860152611463828261125b565b91505060e083015161147860e086018261169f565b50610100830151848203610100860152611492828261125b565b9150506101208301518482036101208601526114ae828261125b565b9150506101408301516114c56101408601826116ae565b506101608301516114da61016086018261169f565b506101808301516114ef61018086018261169f565b506101a08301516115046101a086018261169f565b508091505092915050565b60006101c083016000808401858303600087015261152d8382611294565b9250506001840185830360208701526115468382611294565b92505060028401858303604087015261155f8382611294565b9250506003840185830360608701526115788382611294565b9250506004840185830360808701526115918382611294565b9250506005840185830360a08701526115aa8382611294565b9250506006840185830360c08701526115c38382611294565b925050600784015490506115d68161190a565b6115e360e087018261169f565b50600884018583036101008701526115fb8382611294565b925050600984018583036101208701526116158382611294565b925050600a840154905061162881611924565b6116366101408701826116ae565b50600b84015490506116478161190a565b61165561016087018261169f565b50600c84015490506116668161190a565b61167461018087018261169f565b50600d84015490506116858161190a565b6116936101a087018261169f565b50819250505092915050565b6116a881611897565b82525050565b6116b7816118a1565b82525050565b60006116c9828461122a565b915081905092915050565b60006020820190506116e960008301846111e2565b92915050565b6000604082019050818103600083015261170981856111f1565b9050818103602083015261171d8184611360565b90509392505050565b600060208201905081810360008301526117408184611323565b905092915050565b6000604051905081810181811067ffffffffffffffff8211171561176b57600080fd5b8060405250919050565b600067ffffffffffffffff82111561178c57600080fd5b601f19601f8301169050602081019050919050565b600067ffffffffffffffff8211156117b857600080fd5b601f19601f8301169050602081019050919050565b60008160005260206000209050919050565b600081519050919050565b600081519050919050565b600082825260208201905092915050565b600082825260208201905092915050565b600081905092915050565b600073ffffffffffffffffffffffffffffffffffffffff82169050919050565b6000819050919050565b600060ff82169050919050565b600061186482611877565b9050919050565b60008115159050919050565b600073ffffffffffffffffffffffffffffffffffffffff82169050919050565b6000819050919050565b600060ff82169050919050565b82818337600083830152505050565b60005b838110156118db5780820151818401526020810190506118c0565b838111156118ea576000848401525b50505050565b60006119036118fe8361194f565b611822565b9050919050565b600061191d6119188361194f565b611842565b9050919050565b60006119376119328361194f565b61184c565b9050919050565b6000601f19601f8301169050919050565b60008160001c9050919050565b61196581611897565b811461197057600080fd5b50565b61197c816118a1565b811461198757600080fd5b5056fea265627a7a723058200bcc81ac6d646b51eb8e6d0564b48bfdd8fed813a43532c32aaedda5dbaa9d576c6578706572696d656e74616cf50037",
  "source": "pragma solidity >=0.5.0 <0.6.0;\npragma experimental ABIEncoderV2;\n\ncontract Piper {\n  address owner;\n  string name;\n\n  struct Extension {\n    string hash;\n    string developer;\n    string developerETH;\n    string name;\n    string overview;\n    string category;\n    string version;\n    uint size;\n    string iconURL;\n    string crx;\n    uint8 rating;\n    uint reviews;\n    uint downloads;\n    uint updated;\n  }\n\n  struct ExtensionWithOwner {\n    Extension extension;\n    address owner;\n  }\n\n  mapping(string => ExtensionWithOwner) extensions;\n  mapping(string => bool) hasExtension;\n\n  constructor() public {\n    owner = msg.sender;\n    name = \"Piper\";\n  }\n\n  function isExtension(string memory _hash) public view returns(bool) {\n    return hasExtension[_hash] == true;\n  }\n\n  function getExtensionByHash(string memory _hash) public view returns(ExtensionWithOwner memory) {\n    // Make sure the extension exists.\n    require(isExtension(_hash));\n\n    return extensions[_hash];\n  }\n\n  event CreateNewExtensionEvent(string hash, ExtensionWithOwner extension);\n  event UpdateExtensionByHashEvent(string hash, ExtensionWithOwner extension);\n\n  function createNewExtension(string memory _hash, Extension memory _extension) public returns(bool) {\n    // Make sure that the extension doesnt exist.\n    require(!isExtension(_hash));\n\n    // Create new extension.\n    extensions[_hash].extension = _extension;\n    extensions[_hash].owner = msg.sender;\n    hasExtension[_hash] = true;\n\n    emit CreateNewExtensionEvent(_hash, extensions[_hash]);\n\n    return true;\n  }\n\n  function updateExtensionByHash(string memory _hash, Extension memory _extension) public returns(bool) {\n    // Check if extension owner is the one trying to edit it.\n    require(isExtension(_hash));\n    require(msg.sender == extensions[_hash].owner);\n\n    // Update the extension.\n    extensions[_hash].extension = _extension;\n\n    emit UpdateExtensionByHashEvent(_hash, extensions[_hash]);\n\n    return true;\n  }\n}\n",
  "sourcePath": "/home/robin/piper/contracts/Piper.sol",
  "compiler": {
    "name": "solc",
    "version": "0.5.8+commit.23d335f2.Emscripten.clang"
  },
  "schemaVersion": "3.0.11",
  "updatedAt": "2019-07-03T22:50:54.220Z",
  "devdoc": {
    "methods": {}
  },
  "userdoc": {
    "methods": {}
  }
}